{
  "abi": [
    {
      "inputs": [
        {
          "internalType": "address",
          "name": "_paymentToken",
          "type": "address"
        }
      ],
      "stateMutability": "nonpayable",
      "type": "constructor"
    },
    {
      "anonymous": false,
      "inputs": [
        {
          "indexed": true,
          "internalType": "address",
          "name": "owner",
          "type": "address"
        },
        {
          "indexed": true,
          "internalType": "address",
          "name": "approved",
          "type": "address"
        },
        {
          "indexed": true,
          "internalType": "uint256",
          "name": "tokenId",
          "type": "uint256"
        }
      ],
      "name": "Approval",
      "type": "event"
    },
    {
      "anonymous": false,
      "inputs": [
        {
          "indexed": true,
          "internalType": "address",
          "name": "owner",
          "type": "address"
        },
        {
          "indexed": true,
          "internalType": "address",
          "name": "operator",
          "type": "address"
        },
        {
          "indexed": false,
          "internalType": "bool",
          "name": "approved",
          "type": "bool"
        }
      ],
      "name": "ApprovalForAll",
      "type": "event"
    },
    {
      "anonymous": false,
      "inputs": [
        {
          "indexed": true,
          "internalType": "address",
          "name": "previousOwner",
          "type": "address"
        },
        {
          "indexed": true,
          "internalType": "address",
          "name": "newOwner",
          "type": "address"
        }
      ],
      "name": "OwnershipTransferred",
      "type": "event"
    },
    {
      "anonymous": false,
      "inputs": [
        {
          "indexed": false,
          "internalType": "address",
          "name": "account",
          "type": "address"
        }
      ],
      "name": "Paused",
      "type": "event"
    },
    {
      "anonymous": false,
      "inputs": [
        {
          "indexed": true,
          "internalType": "address",
          "name": "from",
          "type": "address"
        },
        {
          "indexed": true,
          "internalType": "address",
          "name": "to",
          "type": "address"
        },
        {
          "indexed": true,
          "internalType": "uint256",
          "name": "tokenId",
          "type": "uint256"
        }
      ],
      "name": "Transfer",
      "type": "event"
    },
    {
      "anonymous": false,
      "inputs": [
        {
          "indexed": false,
          "internalType": "address",
          "name": "account",
          "type": "address"
        }
      ],
      "name": "Unpaused",
      "type": "event"
    },
    {
      "inputs": [],
      "name": "BOOSTER_PACK_COST",
      "outputs": [
        {
          "internalType": "uint256",
          "name": "",
          "type": "uint256"
        }
      ],
      "stateMutability": "view",
      "type": "function"
    },
    {
      "inputs": [],
      "name": "BURN_REWARD",
      "outputs": [
        {
          "internalType": "uint256",
          "name": "",
          "type": "uint256"
        }
      ],
      "stateMutability": "view",
      "type": "function"
    },
    {
      "inputs": [],
      "name": "LEGENDARY_PROBABILITY",
      "outputs": [
        {
          "internalType": "uint256",
          "name": "",
          "type": "uint256"
        }
      ],
      "stateMutability": "view",
      "type": "function"
    },
    {
      "inputs": [],
      "name": "RARE_PROBABILITY",
      "outputs": [
        {
          "internalType": "uint256",
          "name": "",
          "type": "uint256"
        }
      ],
      "stateMutability": "view",
      "type": "function"
    },
    {
      "inputs": [
        {
          "internalType": "uint256",
          "name": "cantidadCriaturas",
          "type": "uint256"
        },
        {
          "internalType": "uint256",
          "name": "cantidadHabilidades",
          "type": "uint256"
        },
        {
          "internalType": "uint256",
          "name": "cantidadObjetos",
          "type": "uint256"
        },
        {
          "internalType": "uint256",
          "name": "stockInicial",
          "type": "uint256"
        }
      ],
      "name": "addCardsSet",
      "outputs": [],
      "stateMutability": "nonpayable",
      "type": "function"
    },
    {
      "inputs": [
        {
          "internalType": "address",
          "name": "to",
          "type": "address"
        },
        {
          "internalType": "uint256",
          "name": "tokenId",
          "type": "uint256"
        }
      ],
      "name": "approve",
      "outputs": [],
      "stateMutability": "nonpayable",
      "type": "function"
    },
    {
      "inputs": [
        {
          "internalType": "address",
          "name": "owner",
          "type": "address"
        }
      ],
      "name": "balanceOf",
      "outputs": [
        {
          "internalType": "uint256",
          "name": "",
          "type": "uint256"
        }
      ],
      "stateMutability": "view",
      "type": "function"
    },
    {
      "inputs": [
        {
          "internalType": "uint256",
          "name": "tokenId",
          "type": "uint256"
        }
      ],
      "name": "burn",
      "outputs": [],
      "stateMutability": "nonpayable",
      "type": "function"
    },
    {
      "inputs": [],
      "name": "burnLimit",
      "outputs": [
        {
          "internalType": "uint256",
          "name": "",
          "type": "uint256"
        }
      ],
      "stateMutability": "view",
      "type": "function"
    },
    {
      "inputs": [],
      "name": "burnTimeFrame",
      "outputs": [
        {
          "internalType": "uint256",
          "name": "",
          "type": "uint256"
        }
      ],
      "stateMutability": "view",
      "type": "function"
    },
    {
      "inputs": [
        {
          "internalType": "uint8",
          "name": "_cardType",
          "type": "uint8"
        }
      ],
      "name": "buyBoosterPack",
      "outputs": [],
      "stateMutability": "nonpayable",
      "type": "function"
    },
    {
      "inputs": [
        {
          "internalType": "uint256",
          "name": "",
          "type": "uint256"
        }
      ],
      "name": "cardStock",
      "outputs": [
        {
          "internalType": "uint256",
          "name": "",
          "type": "uint256"
        }
      ],
      "stateMutability": "view",
      "type": "function"
    },
    {
      "inputs": [
        {
          "internalType": "uint256",
          "name": "",
          "type": "uint256"
        }
      ],
      "name": "cards",
      "outputs": [
        {
          "internalType": "uint256",
          "name": "cardId",
          "type": "uint256"
        },
        {
          "internalType": "uint8",
          "name": "rarity",
          "type": "uint8"
        }
      ],
      "stateMutability": "view",
      "type": "function"
    },
    {
      "inputs": [
        {
          "internalType": "uint256",
          "name": "",
          "type": "uint256"
        }
      ],
      "name": "criaturasDisponibles",
      "outputs": [
        {
          "internalType": "uint256",
          "name": "",
          "type": "uint256"
        }
      ],
      "stateMutability": "view",
      "type": "function"
    },
    {
      "inputs": [
        {
          "internalType": "uint256",
          "name": "tokenId",
          "type": "uint256"
        }
      ],
      "name": "getApproved",
      "outputs": [
        {
          "internalType": "address",
          "name": "",
          "type": "address"
        }
      ],
      "stateMutability": "view",
      "type": "function"
    },
    {
      "inputs": [
        {
          "internalType": "uint256",
          "name": "",
          "type": "uint256"
        }
      ],
      "name": "habilidadesDisponibles",
      "outputs": [
        {
          "internalType": "uint256",
          "name": "",
          "type": "uint256"
        }
      ],
      "stateMutability": "view",
      "type": "function"
    },
    {
      "inputs": [
        {
          "internalType": "address",
          "name": "owner",
          "type": "address"
        },
        {
          "internalType": "address",
          "name": "operator",
          "type": "address"
        }
      ],
      "name": "isApprovedForAll",
      "outputs": [
        {
          "internalType": "bool",
          "name": "",
          "type": "bool"
        }
      ],
      "stateMutability": "view",
      "type": "function"
    },
    {
      "inputs": [],
      "name": "name",
      "outputs": [
        {
          "internalType": "string",
          "name": "",
          "type": "string"
        }
      ],
      "stateMutability": "view",
      "type": "function"
    },
    {
      "inputs": [
        {
          "internalType": "uint256",
          "name": "",
          "type": "uint256"
        }
      ],
      "name": "objetosDisponibles",
      "outputs": [
        {
          "internalType": "uint256",
          "name": "",
          "type": "uint256"
        }
      ],
      "stateMutability": "view",
      "type": "function"
    },
    {
      "inputs": [],
      "name": "owner",
      "outputs": [
        {
          "internalType": "address",
          "name": "",
          "type": "address"
        }
      ],
      "stateMutability": "view",
      "type": "function"
    },
    {
      "inputs": [
        {
          "internalType": "uint256",
          "name": "tokenId",
          "type": "uint256"
        }
      ],
      "name": "ownerOf",
      "outputs": [
        {
          "internalType": "address",
          "name": "",
          "type": "address"
        }
      ],
      "stateMutability": "view",
      "type": "function"
    },
    {
      "inputs": [],
      "name": "pauseContract",
      "outputs": [],
      "stateMutability": "nonpayable",
      "type": "function"
    },
    {
      "inputs": [],
      "name": "paused",
      "outputs": [
        {
          "internalType": "bool",
          "name": "",
          "type": "bool"
        }
      ],
      "stateMutability": "view",
      "type": "function"
    },
    {
      "inputs": [],
      "name": "paymentToken",
      "outputs": [
        {
          "internalType": "contract IERC20",
          "name": "",
          "type": "address"
        }
      ],
      "stateMutability": "view",
      "type": "function"
    },
    {
      "inputs": [
        {
          "internalType": "uint256",
          "name": "_cardId",
          "type": "uint256"
        }
      ],
      "name": "remainingCards",
      "outputs": [
        {
          "internalType": "uint256",
          "name": "",
          "type": "uint256"
        }
      ],
      "stateMutability": "view",
      "type": "function"
    },
    {
      "inputs": [],
      "name": "renounceOwnership",
      "outputs": [],
      "stateMutability": "nonpayable",
      "type": "function"
    },
    {
      "inputs": [
        {
          "internalType": "address",
          "name": "from",
          "type": "address"
        },
        {
          "internalType": "address",
          "name": "to",
          "type": "address"
        },
        {
          "internalType": "uint256",
          "name": "tokenId",
          "type": "uint256"
        }
      ],
      "name": "safeTransferFrom",
      "outputs": [],
      "stateMutability": "nonpayable",
      "type": "function"
    },
    {
      "inputs": [
        {
          "internalType": "address",
          "name": "from",
          "type": "address"
        },
        {
          "internalType": "address",
          "name": "to",
          "type": "address"
        },
        {
          "internalType": "uint256",
          "name": "tokenId",
          "type": "uint256"
        },
        {
          "internalType": "bytes",
          "name": "data",
          "type": "bytes"
        }
      ],
      "name": "safeTransferFrom",
      "outputs": [],
      "stateMutability": "nonpayable",
      "type": "function"
    },
    {
      "inputs": [
        {
          "internalType": "address",
          "name": "operator",
          "type": "address"
        },
        {
          "internalType": "bool",
          "name": "approved",
          "type": "bool"
        }
      ],
      "name": "setApprovalForAll",
      "outputs": [],
      "stateMutability": "nonpayable",
      "type": "function"
    },
    {
      "inputs": [
        {
          "internalType": "uint256",
          "name": "cardId",
          "type": "uint256"
        },
        {
          "internalType": "uint8",
          "name": "rarity",
          "type": "uint8"
        },
        {
          "internalType": "string",
          "name": "uri",
          "type": "string"
        }
      ],
      "name": "setCardURI",
      "outputs": [],
      "stateMutability": "nonpayable",
      "type": "function"
    },
    {
      "inputs": [
        {
          "internalType": "bytes4",
          "name": "interfaceId",
          "type": "bytes4"
        }
      ],
      "name": "supportsInterface",
      "outputs": [
        {
          "internalType": "bool",
          "name": "",
          "type": "bool"
        }
      ],
      "stateMutability": "view",
      "type": "function"
    },
    {
      "inputs": [],
      "name": "symbol",
      "outputs": [
        {
          "internalType": "string",
          "name": "",
          "type": "string"
        }
      ],
      "stateMutability": "view",
      "type": "function"
    },
    {
      "inputs": [
        {
          "internalType": "uint256",
          "name": "index",
          "type": "uint256"
        }
      ],
      "name": "tokenByIndex",
      "outputs": [
        {
          "internalType": "uint256",
          "name": "",
          "type": "uint256"
        }
      ],
      "stateMutability": "view",
      "type": "function"
    },
    {
      "inputs": [
        {
          "internalType": "address",
          "name": "owner",
          "type": "address"
        },
        {
          "internalType": "uint256",
          "name": "index",
          "type": "uint256"
        }
      ],
      "name": "tokenOfOwnerByIndex",
      "outputs": [
        {
          "internalType": "uint256",
          "name": "",
          "type": "uint256"
        }
      ],
      "stateMutability": "view",
      "type": "function"
    },
    {
      "inputs": [
        {
          "internalType": "uint256",
          "name": "tokenId",
          "type": "uint256"
        }
      ],
      "name": "tokenURI",
      "outputs": [
        {
          "internalType": "string",
          "name": "",
          "type": "string"
        }
      ],
      "stateMutability": "view",
      "type": "function"
    },
    {
      "inputs": [],
      "name": "totalCriaturas",
      "outputs": [
        {
          "internalType": "uint256",
          "name": "",
          "type": "uint256"
        }
      ],
      "stateMutability": "view",
      "type": "function"
    },
    {
      "inputs": [],
      "name": "totalHabilidades",
      "outputs": [
        {
          "internalType": "uint256",
          "name": "",
          "type": "uint256"
        }
      ],
      "stateMutability": "view",
      "type": "function"
    },
    {
      "inputs": [],
      "name": "totalObjetos",
      "outputs": [
        {
          "internalType": "uint256",
          "name": "",
          "type": "uint256"
        }
      ],
      "stateMutability": "view",
      "type": "function"
    },
    {
      "inputs": [],
      "name": "totalSupply",
      "outputs": [
        {
          "internalType": "uint256",
          "name": "",
          "type": "uint256"
        }
      ],
      "stateMutability": "view",
      "type": "function"
    },
    {
      "inputs": [
        {
          "internalType": "address",
          "name": "from",
          "type": "address"
        },
        {
          "internalType": "address",
          "name": "to",
          "type": "address"
        },
        {
          "internalType": "uint256",
          "name": "tokenId",
          "type": "uint256"
        }
      ],
      "name": "transferFrom",
      "outputs": [],
      "stateMutability": "nonpayable",
      "type": "function"
    },
    {
      "inputs": [
        {
          "internalType": "address",
          "name": "newOwner",
          "type": "address"
        }
      ],
      "name": "transferOwnership",
      "outputs": [],
      "stateMutability": "nonpayable",
      "type": "function"
    },
    {
      "inputs": [],
      "name": "unpauseContract",
      "outputs": [],
      "stateMutability": "nonpayable",
      "type": "function"
    },
    {
      "inputs": [
        {
          "internalType": "address",
          "name": "_paymentToken",
          "type": "address"
        }
      ],
      "name": "updatePaymentToken",
      "outputs": [],
      "stateMutability": "nonpayable",
      "type": "function"
    },
    {
      "inputs": [],
      "name": "withdraw",
      "outputs": [],
      "stateMutability": "nonpayable",
      "type": "function"
    }
  ],
  "bytecode": "6080604052600a601355620151806014553480156200001d57600080fd5b50604051620032fe380380620032fe8339810160408190526200004091620003aa565b6040518060400160405280600f81526020016e10dc9e5c1d1bd099585cdd1cd39195608a1b8152506040518060400160405280600581526020016410d093919560da1b815250816000908162000097919062000481565b506001620000a6828262000481565b505050620000c3620000bd6200011260201b60201c565b62000116565b600a805460ff60a01b19169055600b80546001600160a01b0319166001600160a01b0383161781556000600c819055600d819055600e556200010b9060159080606462000168565b5062000599565b3390565b600a80546001600160a01b038381166001600160a01b0319831681179093556040519116919082907f8be0079c531659141344cd1fd0a4f28419497f9722a3daafe3b4186f6b6457e090600090a35050565b6000600c5460036200017b919062000563565b90505b84600c546200018e919062000583565b6200019b90600362000563565b811015620001fa5760008181526012602052604081208390556017805460018101825591527fc624b66cc0138b8fabc209247f72d758e1cf3343756d543badbf24212bed8c1501819055620001f260038262000583565b90506200017e565b506000600d5460036200020e919062000563565b6200021b90600162000583565b90505b83600d546200022e919062000583565b6200023b90600362000563565b6200024890600162000583565b811015620002a75760008181526012602052604081208390556018805460018101825591527fb13d2d76d1f4b7be834882e410b3e3a8afaf69f83600ae24db354391d2378d2e018190556200029f60038262000583565b90506200021e565b506000600e546003620002bb919062000563565b620002c890600262000583565b90505b82600e54620002db919062000583565b620002e890600362000563565b620002f590600262000583565b811015620003545760008181526012602052604081208390556019805460018101825591527f944998273e477b495144fb8794c914197f3ccb46be2900f4698fd0ef743c9695018190556200034c60038262000583565b9050620002cb565b5083600c600082825462000369919062000583565b9250508190555082600d600082825462000384919062000583565b9250508190555081600e60008282546200039f919062000583565b909155505050505050565b600060208284031215620003bd57600080fd5b81516001600160a01b0381168114620003d557600080fd5b9392505050565b634e487b7160e01b600052604160045260246000fd5b600181811c908216806200040757607f821691505b6020821081036200042857634e487b7160e01b600052602260045260246000fd5b50919050565b601f8211156200047c57600081815260208120601f850160051c81016020861015620004575750805b601f850160051c820191505b81811015620004785782815560010162000463565b5050505b505050565b81516001600160401b038111156200049d576200049d620003dc565b620004b581620004ae8454620003f2565b846200042e565b602080601f831160018114620004ed5760008415620004d45750858301515b600019600386901b1c1916600185901b17855562000478565b600085815260208120601f198616915b828110156200051e57888601518255948401946001909101908401620004fd565b50858210156200053d5787850151600019600388901b60f8161c191681555b5050505050600190811b01905550565b634e487b7160e01b600052601160045260246000fd5b80820281158282048414176200057d576200057d6200054d565b92915050565b808201808211156200057d576200057d6200054d565b612d5580620005a96000396000f3fe608060405234801561001057600080fd5b50600436106102745760003560e01c80634f6ccce711610151578063a23bd4f2116100c3578063c87b56dd11610087578063c87b56dd14610550578063da4fc3a414610563578063e985e9c514610572578063f2fde38b146105ae578063fb9dd96e146105c1578063ff552e44146105d157600080fd5b8063a23bd4f214610504578063b33712c514610524578063b51cff381461052c578063b88d4fde14610534578063bc86206f1461054757600080fd5b8063715018a611610115578063715018a61461047c5780638da5cb5b146104845780638dc107681461049557806395d89b41146104d6578063a0a0e5dd146104de578063a22cb465146104f157600080fd5b80634f6ccce7146104285780635c975abb1461043b5780636352211e1461044d57806365a8e6a31461046057806370a082311461046957600080fd5b80632b70b96d116101ea5780633ccfd60b116101ae5780633ccfd60b146103d657806342842e0e146103de57806342966c68146103f1578063439766ce146104045780634c662f281461040c5780634ccf1b341461041557600080fd5b80632b70b96d1461036a5780632d9e882e1461038a5780632f745c591461039d5780633013ce29146103b05780633a64bb76146103c357600080fd5b806318160ddd1161023c57806318160ddd1461030d5780631f2525b21461031557806322772c011461032857806323b872dd1461033b5780632a9c72c81461034e5780632b51a37c1461035757600080fd5b806301ffc9a71461027957806306fdde03146102a1578063081812fc146102b6578063095ea7b3146102e157806315d0b529146102f6575b600080fd5b61028c61028736600461260f565b6105d9565b60405190151581526020015b60405180910390f35b6102a9610604565b6040516102989190612672565b6102c96102c4366004612685565b610696565b6040516001600160a01b039091168152602001610298565b6102f46102ef3660046126ba565b6106bd565b005b6102ff600c5481565b604051908152602001610298565b6008546102ff565b6102f46103233660046126f5565b6107d7565b6102f4610336366004612710565b610917565b6102f4610349366004612797565b61094d565b6102ff60135481565b6102ff610365366004612685565b61097e565b6102ff610378366004612685565b60009081526012602052604090205490565b6102ff610398366004612685565b61099f565b6102ff6103ab3660046126ba565b6109af565b600b546102c9906001600160a01b031681565b6102f46103d13660046127d3565b610a45565b6102f4610a5f565b6102f46103ec366004612797565b610b0c565b6102f46103ff366004612685565b610b27565b6102f4610dcc565b6102ff60145481565b6102f4610423366004612805565b610dde565b6102ff610436366004612685565b610e08565b600a54600160a01b900460ff1661028c565b6102c961045b366004612685565b610e9b565b6102ff600e5481565b6102ff610477366004612805565b610efb565b6102f4610f81565b600a546001600160a01b03166102c9565b6104bf6104a3366004612685565b6011602052600090815260409020805460019091015460ff1682565b6040805192835260ff909116602083015201610298565b6102a9610f93565b6102ff6104ec366004612685565b610fa2565b6102f46104ff36600461282e565b610fb2565b6102ff610512366004612685565b60126020526000908152604090205481565b6102f4610fbd565b6102ff601481565b6102f461054236600461287b565b610fcd565b6102ff600d5481565b6102a961055e366004612685565b610fff565b6102ff676124fee993bc000081565b61028c610580366004612957565b6001600160a01b03918216600090815260056020908152604080832093909416825291909152205460ff1690565b6102f46105bc366004612805565b6111b3565b6102ff6802b5e3af16b188000081565b6102ff600581565b60006001600160e01b0319821663780e9d6360e01b14806105fe57506105fe8261122c565b92915050565b6060600080546106139061298a565b80601f016020809104026020016040519081016040528092919081815260200182805461063f9061298a565b801561068c5780601f106106615761010080835404028352916020019161068c565b820191906000526020600020905b81548152906001019060200180831161066f57829003601f168201915b5050505050905090565b60006106a18261127c565b506000908152600460205260409020546001600160a01b031690565b60006106c882610e9b565b9050806001600160a01b0316836001600160a01b03160361073a5760405162461bcd60e51b815260206004820152602160248201527f4552433732313a20617070726f76616c20746f2063757272656e74206f776e656044820152603960f91b60648201526084015b60405180910390fd5b336001600160a01b038216148061075657506107568133610580565b6107c85760405162461bcd60e51b815260206004820152603d60248201527f4552433732313a20617070726f76652063616c6c6572206973206e6f7420746f60448201527f6b656e206f776e6572206f7220617070726f76656420666f7220616c6c0000006064820152608401610731565b6107d283836112db565b505050565b6107df611349565b60018160ff16101580156107f7575060038160ff1611155b6108375760405162461bcd60e51b8152602060048201526011602482015270496e76616c69642063617264207479706560781b6044820152606401610731565b60005b60058160ff16101561088e576000610853836005611396565b905061087b33828460ff168151811061086e5761086e6129c4565b60200260200101516114e0565b5080610886816129f0565b91505061083a565b50600b546040516323b872dd60e01b81523360048201523060248201526802b5e3af16b188000060448201526001600160a01b03909116906323b872dd906064015b6020604051808303816000875af11580156108ef573d6000803e3d6000fd5b505050506040513d601f19601f820116820180604052508101906109139190612a0f565b5050565b61091f611866565b600084815260106020908152604080832060ff871684529091529020610946828483612a7a565b5050505050565b61095733826118c0565b6109735760405162461bcd60e51b815260040161073190612b3a565b6107d283838361193f565b6019818154811061098e57600080fd5b600091825260209091200154905081565b6017818154811061098e57600080fd5b60006109ba83610efb565b8210610a1c5760405162461bcd60e51b815260206004820152602b60248201527f455243373231456e756d657261626c653a206f776e657220696e646578206f7560448201526a74206f6620626f756e647360a81b6064820152608401610731565b506001600160a01b03919091166000908152600660209081526040808320938352929052205490565b610a4d611866565b610a5984848484611ab0565b50505050565b610a67611866565b600b546040516370a0823160e01b81523060048201526000916001600160a01b0316906370a0823190602401602060405180830381865afa158015610ab0573d6000803e3d6000fd5b505050506040513d601f19601f82011682018060405250810190610ad49190612b87565b600b5460405163a9059cbb60e01b8152336004820152602481018390529192506001600160a01b03169063a9059cbb906044016108d0565b6107d283838360405180602001604052806000815250610fcd565b33610b3182610e9b565b6001600160a01b031614610b925760405162461bcd60e51b815260206004820152602260248201527f4f6e6c7920746865206f776e65722063616e206275726e207468697320746f6b60448201526132b760f11b6064820152608401610731565b600b546040516370a0823160e01b8152306004820152676124fee993bc0000916001600160a01b0316906370a0823190602401602060405180830381865afa158015610be2573d6000803e3d6000fd5b505050506040513d601f19601f82011682018060405250810190610c069190612b87565b1015610c6c5760405162461bcd60e51b815260206004820152602f60248201527f436f6e74726163742068617320696e73756666696369656e742062616c616e6360448201526e19481d1bc81c185e481c995dd85c99608a1b6064820152608401610731565b33600090815260166020526040902054601454429190610c8c8284612ba0565b1115610cb257336000908152601560209081526040808320839055601690915290208290555b6013543360009081526015602052604090205410610d215760405162461bcd60e51b815260206004820152602660248201527f4275726e206c696d6974207265616368656420666f7220746869732074696d65604482015265206672616d6560d01b6064820152608401610731565b610d2a83611cc6565b336000908152601560205260408120805460019290610d4a908490612bb3565b9091555050600b5460405163a9059cbb60e01b8152336004820152676124fee993bc000060248201819052916001600160a01b03169063a9059cbb906044016020604051808303816000875af1158015610da8573d6000803e3d6000fd5b505050506040513d601f19601f820116820180604052508101906109469190612a0f565b610dd4611866565b610ddc611d69565b565b610de6611866565b600b80546001600160a01b0319166001600160a01b0392909216919091179055565b6000610e1360085490565b8210610e765760405162461bcd60e51b815260206004820152602c60248201527f455243373231456e756d657261626c653a20676c6f62616c20696e646578206f60448201526b7574206f6620626f756e647360a01b6064820152608401610731565b60088281548110610e8957610e896129c4565b90600052602060002001549050919050565b6000818152600260205260408120546001600160a01b0316806105fe5760405162461bcd60e51b8152602060048201526018602482015277115490cdcc8c4e881a5b9d985b1a59081d1bdad95b88125160421b6044820152606401610731565b60006001600160a01b038216610f655760405162461bcd60e51b815260206004820152602960248201527f4552433732313a2061646472657373207a65726f206973206e6f7420612076616044820152683634b21037bbb732b960b91b6064820152608401610731565b506001600160a01b031660009081526003602052604090205490565b610f89611866565b610ddc6000611dc9565b6060600180546106139061298a565b6018818154811061098e57600080fd5b610913338383611e1b565b610fc5611866565b610ddc611ee9565b610fd733836118c0565b610ff35760405162461bcd60e51b815260040161073190612b3a565b610a5984848484611f25565b6000818152600260205260409020546060906001600160a01b031661107e5760405162461bcd60e51b815260206004820152602f60248201527f4552433732314d657461646174613a2055524920717565727920666f72206e6f60448201526e3732bc34b9ba32b73a103a37b5b2b760891b6064820152608401610731565b600082815260116020908152604080832081518083018352815480825260019092015460ff9081168286019081529286526010855283862092511685529252822080549192916110cd9061298a565b80601f01602080910402602001604051908101604052809291908181526020018280546110f99061298a565b80156111465780601f1061111b57610100808354040283529160200191611146565b820191906000526020600020905b81548152906001019060200180831161112957829003601f168201915b5050505050905060008151116111ac5760405162461bcd60e51b815260206004820152602560248201527f4552433732314d657461646174613a20555249206e6f742073657420666f72206044820152643a37b5b2b760d91b6064820152608401610731565b9392505050565b6111bb611866565b6001600160a01b0381166112205760405162461bcd60e51b815260206004820152602660248201527f4f776e61626c653a206e6577206f776e657220697320746865207a65726f206160448201526564647265737360d01b6064820152608401610731565b61122981611dc9565b50565b60006001600160e01b031982166380ac58cd60e01b148061125d57506001600160e01b03198216635b5e139f60e01b145b806105fe57506301ffc9a760e01b6001600160e01b03198316146105fe565b6000818152600260205260409020546001600160a01b03166112295760405162461bcd60e51b8152602060048201526018602482015277115490cdcc8c4e881a5b9d985b1a59081d1bdad95b88125160421b6044820152606401610731565b600081815260046020526040902080546001600160a01b0319166001600160a01b038416908117909155819061131082610e9b565b6001600160a01b03167f8c5be1e5ebec7d5bd14f71427d1e84f3dd0314c0f7b2291e5b200ac8c7c3b92560405160405180910390a45050565b600a54600160a01b900460ff1615610ddc5760405162461bcd60e51b815260206004820152601060248201526f14185d5cd8589b194e881c185d5cd95960821b6044820152606401610731565b606060008267ffffffffffffffff8111156113b3576113b3612865565b6040519080825280602002602001820160405280156113dc578160200160208202803683370190505b50905060005b838110156114d8578460ff166001036114485760175460009061140490611f58565b905060178181548110611419576114196129c4565b9060005260206000200154838381518110611436576114366129c4565b602002602001018181525050506114c6565b8460ff166002036114775760185460009061146290611f58565b905060188181548110611419576114196129c4565b60195460009061148690611f58565b90506019818154811061149b5761149b6129c4565b90600052602060002001548383815181106114b8576114b86129c4565b602002602001018181525050505b806114d081612bc6565b9150506113e2565b509392505050565b60646114eb600f5490565b106115285760405162461bcd60e51b815260206004820152600d60248201526c139bc818d85c991cc81b19599d609a1b6044820152606401610731565b6000818152601260205260409020546115835760405162461bcd60e51b815260206004820152601b60248201527f4e6f2073746f636b206c65667420666f722074686973206361726400000000006044820152606401610731565b600061158d611fc2565b905061159d600f80546001019055565b60006115a8600f5490565b60408051808201825285815260ff85811660208084019182526000868152601182528581209451855591516001948501805460ff19169190941617909255878152601290915291822080549394509092909190611606908490612ba0565b9091555050600083815260126020526040812054900361185c5761162b600384612bdf565b6000036116f15760005b6017548110156116eb578360178281548110611653576116536129c4565b9060005260206000200154036116d9576017805461167390600190612ba0565b81548110611683576116836129c4565b9060005260206000200154601782815481106116a1576116a16129c4565b60009182526020909120015560178054806116be576116be612c01565b600190038181906000526020600020016000905590556116eb565b806116e381612bc6565b915050611635565b5061185c565b6116fc600384612bdf565b6001036117a15760005b6018548110156116eb578360188281548110611724576117246129c4565b90600052602060002001540361178f576018805461174490600190612ba0565b81548110611754576117546129c4565b906000526020600020015460188281548110611772576117726129c4565b60009182526020909120015560188054806116be576116be612c01565b8061179981612bc6565b915050611706565b60005b60195481101561185a5783601982815481106117c2576117c26129c4565b90600052602060002001540361184857601980546117e290600190612ba0565b815481106117f2576117f26129c4565b906000526020600020015460198281548110611810576118106129c4565b600091825260209091200155601980548061182d5761182d612c01565b6001900381819060005260206000200160009055905561185a565b8061185281612bc6565b9150506117a4565b505b610a598482612005565b600a546001600160a01b03163314610ddc5760405162461bcd60e51b815260206004820181905260248201527f4f776e61626c653a2063616c6c6572206973206e6f7420746865206f776e65726044820152606401610731565b6000806118cc83610e9b565b9050806001600160a01b0316846001600160a01b0316148061191357506001600160a01b0380821660009081526005602090815260408083209388168352929052205460ff165b806119375750836001600160a01b031661192c84610696565b6001600160a01b0316145b949350505050565b826001600160a01b031661195282610e9b565b6001600160a01b0316146119785760405162461bcd60e51b815260040161073190612c17565b6001600160a01b0382166119da5760405162461bcd60e51b8152602060048201526024808201527f4552433732313a207472616e7366657220746f20746865207a65726f206164646044820152637265737360e01b6064820152608401610731565b6119e7838383600161201f565b826001600160a01b03166119fa82610e9b565b6001600160a01b031614611a205760405162461bcd60e51b815260040161073190612c17565b600081815260046020908152604080832080546001600160a01b03199081169091556001600160a01b0387811680865260038552838620805460001901905590871680865283862080546001019055868652600290945282852080549092168417909155905184937fddf252ad1be2c89b69c2b068fc378daa952ba7f163c4a11628f55a4df523b3ef91a4505050565b6000600c546003611ac19190612c5c565b90505b84600c54611ad29190612bb3565b611add906003612c5c565b811015611b385760008181526012602052604081208390556017805460018101825591527fc624b66cc0138b8fabc209247f72d758e1cf3343756d543badbf24212bed8c1501819055611b31600382612bb3565b9050611ac4565b506000600d546003611b4a9190612c5c565b611b55906001612bb3565b90505b83600d54611b669190612bb3565b611b71906003612c5c565b611b7c906001612bb3565b811015611bd75760008181526012602052604081208390556018805460018101825591527fb13d2d76d1f4b7be834882e410b3e3a8afaf69f83600ae24db354391d2378d2e01819055611bd0600382612bb3565b9050611b58565b506000600e546003611be99190612c5c565b611bf4906002612bb3565b90505b82600e54611c059190612bb3565b611c10906003612c5c565b611c1b906002612bb3565b811015611c765760008181526012602052604081208390556019805460018101825591527f944998273e477b495144fb8794c914197f3ccb46be2900f4698fd0ef743c969501819055611c6f600382612bb3565b9050611bf7565b5083600c6000828254611c899190612bb3565b9250508190555082600d6000828254611ca29190612bb3565b9250508190555081600e6000828254611cbb9190612bb3565b909155505050505050565b6000611cd182610e9b565b9050611ce181600084600161201f565b611cea82610e9b565b600083815260046020908152604080832080546001600160a01b03199081169091556001600160a01b0385168085526003845282852080546000190190558785526002909352818420805490911690555192935084927fddf252ad1be2c89b69c2b068fc378daa952ba7f163c4a11628f55a4df523b3ef908390a45050565b611d71611349565b600a805460ff60a01b1916600160a01b1790557f62e78cea01bee320cd4e420270b5ea74000d11b0c9f74754ebdbfc544b05a258611dac3390565b6040516001600160a01b03909116815260200160405180910390a1565b600a80546001600160a01b038381166001600160a01b0319831681179093556040519116919082907f8be0079c531659141344cd1fd0a4f28419497f9722a3daafe3b4186f6b6457e090600090a35050565b816001600160a01b0316836001600160a01b031603611e7c5760405162461bcd60e51b815260206004820152601960248201527f4552433732313a20617070726f766520746f2063616c6c6572000000000000006044820152606401610731565b6001600160a01b03838116600081815260056020908152604080832094871680845294825291829020805460ff191686151590811790915591519182527f17307eab39ab6107e8899845ad3d59bd9653f200f220920489ca2b5937696c31910160405180910390a3505050565b611ef161214c565b600a805460ff60a01b191690557f5db9ee0a495bf2e6ff9c91a7834c1ba4fdd244a5e8aa4e537bd38aeae4b073aa33611dac565b611f3084848461193f565b611f3c8484848461219c565b610a595760405162461bcd60e51b815260040161073190612c73565b60008042611f67600143612ba0565b4033604051602001611f9e93929190928352602083019190915260601b6bffffffffffffffffffffffff1916604082015260540190565b60408051601f19818403018152919052805160209091012090506111ac8382612bdf565b600080611fcf6064611f58565b90506005811015611fe257600391505090565b611fee60146005612bb3565b811015611ffd57600291505090565b600191505090565b61091382826040518060200160405280600081525061229d565b600181111561208e5760405162461bcd60e51b815260206004820152603560248201527f455243373231456e756d657261626c653a20636f6e7365637574697665207472604482015274185b9cd9995c9cc81b9bdd081cdd5c1c1bdc9d1959605a1b6064820152608401610731565b816001600160a01b0385166120ea576120e581600880546000838152600960205260408120829055600182018355919091527ff3f7a9fe364faab93b216da50a3214154f22a0a2b415b23a84c8169e8b636ee30155565b61210d565b836001600160a01b0316856001600160a01b03161461210d5761210d85826122d0565b6001600160a01b038416612129576121248161236d565b610946565b846001600160a01b0316846001600160a01b03161461094657610946848261241c565b600a54600160a01b900460ff16610ddc5760405162461bcd60e51b815260206004820152601460248201527314185d5cd8589b194e881b9bdd081c185d5cd95960621b6044820152606401610731565b60006001600160a01b0384163b1561229257604051630a85bd0160e11b81526001600160a01b0385169063150b7a02906121e0903390899088908890600401612cc5565b6020604051808303816000875af192505050801561221b575060408051601f3d908101601f1916820190925261221891810190612d02565b60015b612278573d808015612249576040519150601f19603f3d011682016040523d82523d6000602084013e61224e565b606091505b5080516000036122705760405162461bcd60e51b815260040161073190612c73565b805181602001fd5b6001600160e01b031916630a85bd0160e11b149050611937565b506001949350505050565b6122a78383612460565b6122b4600084848461219c565b6107d25760405162461bcd60e51b815260040161073190612c73565b600060016122dd84610efb565b6122e79190612ba0565b60008381526007602052604090205490915080821461233a576001600160a01b03841660009081526006602090815260408083208584528252808320548484528184208190558352600790915290208190555b5060009182526007602090815260408084208490556001600160a01b039094168352600681528383209183525290812055565b60085460009061237f90600190612ba0565b600083815260096020526040812054600880549394509092849081106123a7576123a76129c4565b9060005260206000200154905080600883815481106123c8576123c86129c4565b600091825260208083209091019290925582815260099091526040808220849055858252812055600880548061240057612400612c01565b6001900381819060005260206000200160009055905550505050565b600061242783610efb565b6001600160a01b039093166000908152600660209081526040808320868452825280832085905593825260079052919091209190915550565b6001600160a01b0382166124b65760405162461bcd60e51b815260206004820181905260248201527f4552433732313a206d696e7420746f20746865207a65726f20616464726573736044820152606401610731565b6000818152600260205260409020546001600160a01b03161561251b5760405162461bcd60e51b815260206004820152601c60248201527f4552433732313a20746f6b656e20616c7265616479206d696e746564000000006044820152606401610731565b61252960008383600161201f565b6000818152600260205260409020546001600160a01b03161561258e5760405162461bcd60e51b815260206004820152601c60248201527f4552433732313a20746f6b656e20616c7265616479206d696e746564000000006044820152606401610731565b6001600160a01b038216600081815260036020908152604080832080546001019055848352600290915280822080546001600160a01b0319168417905551839291907fddf252ad1be2c89b69c2b068fc378daa952ba7f163c4a11628f55a4df523b3ef908290a45050565b6001600160e01b03198116811461122957600080fd5b60006020828403121561262157600080fd5b81356111ac816125f9565b6000815180845260005b8181101561265257602081850181015186830182015201612636565b506000602082860101526020601f19601f83011685010191505092915050565b6020815260006111ac602083018461262c565b60006020828403121561269757600080fd5b5035919050565b80356001600160a01b03811681146126b557600080fd5b919050565b600080604083850312156126cd57600080fd5b6126d68361269e565b946020939093013593505050565b803560ff811681146126b557600080fd5b60006020828403121561270757600080fd5b6111ac826126e4565b6000806000806060858703121561272657600080fd5b84359350612736602086016126e4565b9250604085013567ffffffffffffffff8082111561275357600080fd5b818701915087601f83011261276757600080fd5b81358181111561277657600080fd5b88602082850101111561278857600080fd5b95989497505060200194505050565b6000806000606084860312156127ac57600080fd5b6127b58461269e565b92506127c36020850161269e565b9150604084013590509250925092565b600080600080608085870312156127e957600080fd5b5050823594602084013594506040840135936060013592509050565b60006020828403121561281757600080fd5b6111ac8261269e565b801515811461122957600080fd5b6000806040838503121561284157600080fd5b61284a8361269e565b9150602083013561285a81612820565b809150509250929050565b634e487b7160e01b600052604160045260246000fd5b6000806000806080858703121561289157600080fd5b61289a8561269e565b93506128a86020860161269e565b925060408501359150606085013567ffffffffffffffff808211156128cc57600080fd5b818701915087601f8301126128e057600080fd5b8135818111156128f2576128f2612865565b604051601f8201601f19908116603f0116810190838211818310171561291a5761291a612865565b816040528281528a602084870101111561293357600080fd5b82602086016020830137600060208483010152809550505050505092959194509250565b6000806040838503121561296a57600080fd5b6129738361269e565b91506129816020840161269e565b90509250929050565b600181811c9082168061299e57607f821691505b6020821081036129be57634e487b7160e01b600052602260045260246000fd5b50919050565b634e487b7160e01b600052603260045260246000fd5b634e487b7160e01b600052601160045260246000fd5b600060ff821660ff8103612a0657612a066129da565b60010192915050565b600060208284031215612a2157600080fd5b81516111ac81612820565b601f8211156107d257600081815260208120601f850160051c81016020861015612a535750805b601f850160051c820191505b81811015612a7257828155600101612a5f565b505050505050565b67ffffffffffffffff831115612a9257612a92612865565b612aa683612aa0835461298a565b83612a2c565b6000601f841160018114612ada5760008515612ac25750838201355b600019600387901b1c1916600186901b178355610946565b600083815260209020601f19861690835b82811015612b0b5786850135825560209485019460019092019101612aeb565b5086821015612b285760001960f88860031b161c19848701351681555b505060018560011b0183555050505050565b6020808252602d908201527f4552433732313a2063616c6c6572206973206e6f7420746f6b656e206f776e6560408201526c1c881bdc88185c1c1c9bdd9959609a1b606082015260800190565b600060208284031215612b9957600080fd5b5051919050565b818103818111156105fe576105fe6129da565b808201808211156105fe576105fe6129da565b600060018201612bd857612bd86129da565b5060010190565b600082612bfc57634e487b7160e01b600052601260045260246000fd5b500690565b634e487b7160e01b600052603160045260246000fd5b60208082526025908201527f4552433732313a207472616e736665722066726f6d20696e636f72726563742060408201526437bbb732b960d91b606082015260800190565b80820281158282048414176105fe576105fe6129da565b60208082526032908201527f4552433732313a207472616e7366657220746f206e6f6e20455243373231526560408201527131b2b4bb32b91034b6b83632b6b2b73a32b960711b606082015260800190565b6001600160a01b0385811682528416602082015260408101839052608060608201819052600090612cf89083018461262c565b9695505050505050565b600060208284031215612d1457600080fd5b81516111ac816125f956fea264697066735822122062b3ce1044e7c78187982ac780cc485187f6bd3cf1e903a33b12812f7bca1c2e64736f6c63430008130033",
  "bytecodeSha1": "0d2dc396033be28094c4072a74dd412e6942b149",
  "compiler": {
    "evm_version": "istanbul",
    "optimizer": {
      "enabled": true,
      "runs": 200
    },
    "version": "0.8.19+commit.7dd6d404"
  },
  "contractName": "CryptoBeastsNFT",
  "language": "Solidity",
  "natspec": {
    "kind": "dev",
    "methods": {
      "approve(address,uint256)": {
        "details": "See {IERC721-approve}."
      },
      "balanceOf(address)": {
        "details": "See {IERC721-balanceOf}."
      },
      "getApproved(uint256)": {
        "details": "See {IERC721-getApproved}."
      },
      "isApprovedForAll(address,address)": {
        "details": "See {IERC721-isApprovedForAll}."
      },
      "name()": {
        "details": "See {IERC721Metadata-name}."
      },
      "owner()": {
        "details": "Returns the address of the current owner."
      },
      "ownerOf(uint256)": {
        "details": "See {IERC721-ownerOf}."
      },
      "paused()": {
        "details": "Returns true if the contract is paused, and false otherwise."
      },
      "renounceOwnership()": {
        "details": "Leaves the contract without owner. It will not be possible to call `onlyOwner` functions anymore. Can only be called by the current owner. NOTE: Renouncing ownership will leave the contract without an owner, thereby removing any functionality that is only available to the owner."
      },
      "safeTransferFrom(address,address,uint256)": {
        "details": "See {IERC721-safeTransferFrom}."
      },
      "safeTransferFrom(address,address,uint256,bytes)": {
        "details": "See {IERC721-safeTransferFrom}."
      },
      "setApprovalForAll(address,bool)": {
        "details": "See {IERC721-setApprovalForAll}."
      },
      "supportsInterface(bytes4)": {
        "details": "See {IERC165-supportsInterface}."
      },
      "symbol()": {
        "details": "See {IERC721Metadata-symbol}."
      },
      "tokenByIndex(uint256)": {
        "details": "See {IERC721Enumerable-tokenByIndex}."
      },
      "tokenOfOwnerByIndex(address,uint256)": {
        "details": "See {IERC721Enumerable-tokenOfOwnerByIndex}."
      },
      "tokenURI(uint256)": {
        "details": "See {IERC721Metadata-tokenURI}."
      },
      "totalSupply()": {
        "details": "See {IERC721Enumerable-totalSupply}."
      },
      "transferFrom(address,address,uint256)": {
        "details": "See {IERC721-transferFrom}."
      },
      "transferOwnership(address)": {
        "details": "Transfers ownership of the contract to a new account (`newOwner`). Can only be called by the current owner."
      }
    },
    "version": 1
  },
  "opcodes": "PUSH1 0x80 PUSH1 0x40 MSTORE CALLVALUE DUP1 ISZERO PUSH2 0x10 JUMPI PUSH1 0x0 DUP1 REVERT JUMPDEST POP PUSH1 0x4 CALLDATASIZE LT PUSH2 0x274 JUMPI PUSH1 0x0 CALLDATALOAD PUSH1 0xE0 SHR DUP1 PUSH4 0x4F6CCCE7 GT PUSH2 0x151 JUMPI DUP1 PUSH4 0xA23BD4F2 GT PUSH2 0xC3 JUMPI DUP1 PUSH4 0xC87B56DD GT PUSH2 0x87 JUMPI DUP1 PUSH4 0xC87B56DD EQ PUSH2 0x550 JUMPI DUP1 PUSH4 0xDA4FC3A4 EQ PUSH2 0x563 JUMPI DUP1 PUSH4 0xE985E9C5 EQ PUSH2 0x572 JUMPI DUP1 PUSH4 0xF2FDE38B EQ PUSH2 0x5AE JUMPI DUP1 PUSH4 0xFB9DD96E EQ PUSH2 0x5C1 JUMPI DUP1 PUSH4 0xFF552E44 EQ PUSH2 0x5D1 JUMPI PUSH1 0x0 DUP1 REVERT JUMPDEST DUP1 PUSH4 0xA23BD4F2 EQ PUSH2 0x504 JUMPI DUP1 PUSH4 0xB33712C5 EQ PUSH2 0x524 JUMPI DUP1 PUSH4 0xB51CFF38 EQ PUSH2 0x52C JUMPI DUP1 PUSH4 0xB88D4FDE EQ PUSH2 0x534 JUMPI DUP1 PUSH4 0xBC86206F EQ PUSH2 0x547 JUMPI PUSH1 0x0 DUP1 REVERT JUMPDEST DUP1 PUSH4 0x715018A6 GT PUSH2 0x115 JUMPI DUP1 PUSH4 0x715018A6 EQ PUSH2 0x47C JUMPI DUP1 PUSH4 0x8DA5CB5B EQ PUSH2 0x484 JUMPI DUP1 PUSH4 0x8DC10768 EQ PUSH2 0x495 JUMPI DUP1 PUSH4 0x95D89B41 EQ PUSH2 0x4D6 JUMPI DUP1 PUSH4 0xA0A0E5DD EQ PUSH2 0x4DE JUMPI DUP1 PUSH4 0xA22CB465 EQ PUSH2 0x4F1 JUMPI PUSH1 0x0 DUP1 REVERT JUMPDEST DUP1 PUSH4 0x4F6CCCE7 EQ PUSH2 0x428 JUMPI DUP1 PUSH4 0x5C975ABB EQ PUSH2 0x43B JUMPI DUP1 PUSH4 0x6352211E EQ PUSH2 0x44D JUMPI DUP1 PUSH4 0x65A8E6A3 EQ PUSH2 0x460 JUMPI DUP1 PUSH4 0x70A08231 EQ PUSH2 0x469 JUMPI PUSH1 0x0 DUP1 REVERT JUMPDEST DUP1 PUSH4 0x2B70B96D GT PUSH2 0x1EA JUMPI DUP1 PUSH4 0x3CCFD60B GT PUSH2 0x1AE JUMPI DUP1 PUSH4 0x3CCFD60B EQ PUSH2 0x3D6 JUMPI DUP1 PUSH4 0x42842E0E EQ PUSH2 0x3DE JUMPI DUP1 PUSH4 0x42966C68 EQ PUSH2 0x3F1 JUMPI DUP1 PUSH4 0x439766CE EQ PUSH2 0x404 JUMPI DUP1 PUSH4 0x4C662F28 EQ PUSH2 0x40C JUMPI DUP1 PUSH4 0x4CCF1B34 EQ PUSH2 0x415 JUMPI PUSH1 0x0 DUP1 REVERT JUMPDEST DUP1 PUSH4 0x2B70B96D EQ PUSH2 0x36A JUMPI DUP1 PUSH4 0x2D9E882E EQ PUSH2 0x38A JUMPI DUP1 PUSH4 0x2F745C59 EQ PUSH2 0x39D JUMPI DUP1 PUSH4 0x3013CE29 EQ PUSH2 0x3B0 JUMPI DUP1 PUSH4 0x3A64BB76 EQ PUSH2 0x3C3 JUMPI PUSH1 0x0 DUP1 REVERT JUMPDEST DUP1 PUSH4 0x18160DDD GT PUSH2 0x23C JUMPI DUP1 PUSH4 0x18160DDD EQ PUSH2 0x30D JUMPI DUP1 PUSH4 0x1F2525B2 EQ PUSH2 0x315 JUMPI DUP1 PUSH4 0x22772C01 EQ PUSH2 0x328 JUMPI DUP1 PUSH4 0x23B872DD EQ PUSH2 0x33B JUMPI DUP1 PUSH4 0x2A9C72C8 EQ PUSH2 0x34E JUMPI DUP1 PUSH4 0x2B51A37C EQ PUSH2 0x357 JUMPI PUSH1 0x0 DUP1 REVERT JUMPDEST DUP1 PUSH4 0x1FFC9A7 EQ PUSH2 0x279 JUMPI DUP1 PUSH4 0x6FDDE03 EQ PUSH2 0x2A1 JUMPI DUP1 PUSH4 0x81812FC EQ PUSH2 0x2B6 JUMPI DUP1 PUSH4 0x95EA7B3 EQ PUSH2 0x2E1 JUMPI DUP1 PUSH4 0x15D0B529 EQ PUSH2 0x2F6 JUMPI JUMPDEST PUSH1 0x0 DUP1 REVERT JUMPDEST PUSH2 0x28C PUSH2 0x287 CALLDATASIZE PUSH1 0x4 PUSH2 0x260F JUMP JUMPDEST PUSH2 0x5D9 JUMP JUMPDEST PUSH1 0x40 MLOAD SWAP1 ISZERO ISZERO DUP2 MSTORE PUSH1 0x20 ADD JUMPDEST PUSH1 0x40 MLOAD DUP1 SWAP2 SUB SWAP1 RETURN JUMPDEST PUSH2 0x2A9 PUSH2 0x604 JUMP JUMPDEST PUSH1 0x40 MLOAD PUSH2 0x298 SWAP2 SWAP1 PUSH2 0x2672 JUMP JUMPDEST PUSH2 0x2C9 PUSH2 0x2C4 CALLDATASIZE PUSH1 0x4 PUSH2 0x2685 JUMP JUMPDEST PUSH2 0x696 JUMP JUMPDEST PUSH1 0x40 MLOAD PUSH1 0x1 PUSH1 0x1 PUSH1 0xA0 SHL SUB SWAP1 SWAP2 AND DUP2 MSTORE PUSH1 0x20 ADD PUSH2 0x298 JUMP JUMPDEST PUSH2 0x2F4 PUSH2 0x2EF CALLDATASIZE PUSH1 0x4 PUSH2 0x26BA JUMP JUMPDEST PUSH2 0x6BD JUMP JUMPDEST STOP JUMPDEST PUSH2 0x2FF PUSH1 0xC SLOAD DUP2 JUMP JUMPDEST PUSH1 0x40 MLOAD SWAP1 DUP2 MSTORE PUSH1 0x20 ADD PUSH2 0x298 JUMP JUMPDEST PUSH1 0x8 SLOAD PUSH2 0x2FF JUMP JUMPDEST PUSH2 0x2F4 PUSH2 0x323 CALLDATASIZE PUSH1 0x4 PUSH2 0x26F5 JUMP JUMPDEST PUSH2 0x7D7 JUMP JUMPDEST PUSH2 0x2F4 PUSH2 0x336 CALLDATASIZE PUSH1 0x4 PUSH2 0x2710 JUMP JUMPDEST PUSH2 0x917 JUMP JUMPDEST PUSH2 0x2F4 PUSH2 0x349 CALLDATASIZE PUSH1 0x4 PUSH2 0x2797 JUMP JUMPDEST PUSH2 0x94D JUMP JUMPDEST PUSH2 0x2FF PUSH1 0x13 SLOAD DUP2 JUMP JUMPDEST PUSH2 0x2FF PUSH2 0x365 CALLDATASIZE PUSH1 0x4 PUSH2 0x2685 JUMP JUMPDEST PUSH2 0x97E JUMP JUMPDEST PUSH2 0x2FF PUSH2 0x378 CALLDATASIZE PUSH1 0x4 PUSH2 0x2685 JUMP JUMPDEST PUSH1 0x0 SWAP1 DUP2 MSTORE PUSH1 0x12 PUSH1 0x20 MSTORE PUSH1 0x40 SWAP1 KECCAK256 SLOAD SWAP1 JUMP JUMPDEST PUSH2 0x2FF PUSH2 0x398 CALLDATASIZE PUSH1 0x4 PUSH2 0x2685 JUMP JUMPDEST PUSH2 0x99F JUMP JUMPDEST PUSH2 0x2FF PUSH2 0x3AB CALLDATASIZE PUSH1 0x4 PUSH2 0x26BA JUMP JUMPDEST PUSH2 0x9AF JUMP JUMPDEST PUSH1 0xB SLOAD PUSH2 0x2C9 SWAP1 PUSH1 0x1 PUSH1 0x1 PUSH1 0xA0 SHL SUB AND DUP2 JUMP JUMPDEST PUSH2 0x2F4 PUSH2 0x3D1 CALLDATASIZE PUSH1 0x4 PUSH2 0x27D3 JUMP JUMPDEST PUSH2 0xA45 JUMP JUMPDEST PUSH2 0x2F4 PUSH2 0xA5F JUMP JUMPDEST PUSH2 0x2F4 PUSH2 0x3EC CALLDATASIZE PUSH1 0x4 PUSH2 0x2797 JUMP JUMPDEST PUSH2 0xB0C JUMP JUMPDEST PUSH2 0x2F4 PUSH2 0x3FF CALLDATASIZE PUSH1 0x4 PUSH2 0x2685 JUMP JUMPDEST PUSH2 0xB27 JUMP JUMPDEST PUSH2 0x2F4 PUSH2 0xDCC JUMP JUMPDEST PUSH2 0x2FF PUSH1 0x14 SLOAD DUP2 JUMP JUMPDEST PUSH2 0x2F4 PUSH2 0x423 CALLDATASIZE PUSH1 0x4 PUSH2 0x2805 JUMP JUMPDEST PUSH2 0xDDE JUMP JUMPDEST PUSH2 0x2FF PUSH2 0x436 CALLDATASIZE PUSH1 0x4 PUSH2 0x2685 JUMP JUMPDEST PUSH2 0xE08 JUMP JUMPDEST PUSH1 0xA SLOAD PUSH1 0x1 PUSH1 0xA0 SHL SWAP1 DIV PUSH1 0xFF AND PUSH2 0x28C JUMP JUMPDEST PUSH2 0x2C9 PUSH2 0x45B CALLDATASIZE PUSH1 0x4 PUSH2 0x2685 JUMP JUMPDEST PUSH2 0xE9B JUMP JUMPDEST PUSH2 0x2FF PUSH1 0xE SLOAD DUP2 JUMP JUMPDEST PUSH2 0x2FF PUSH2 0x477 CALLDATASIZE PUSH1 0x4 PUSH2 0x2805 JUMP JUMPDEST PUSH2 0xEFB JUMP JUMPDEST PUSH2 0x2F4 PUSH2 0xF81 JUMP JUMPDEST PUSH1 0xA SLOAD PUSH1 0x1 PUSH1 0x1 PUSH1 0xA0 SHL SUB AND PUSH2 0x2C9 JUMP JUMPDEST PUSH2 0x4BF PUSH2 0x4A3 CALLDATASIZE PUSH1 0x4 PUSH2 0x2685 JUMP JUMPDEST PUSH1 0x11 PUSH1 0x20 MSTORE PUSH1 0x0 SWAP1 DUP2 MSTORE PUSH1 0x40 SWAP1 KECCAK256 DUP1 SLOAD PUSH1 0x1 SWAP1 SWAP2 ADD SLOAD PUSH1 0xFF AND DUP3 JUMP JUMPDEST PUSH1 0x40 DUP1 MLOAD SWAP3 DUP4 MSTORE PUSH1 0xFF SWAP1 SWAP2 AND PUSH1 0x20 DUP4 ADD MSTORE ADD PUSH2 0x298 JUMP JUMPDEST PUSH2 0x2A9 PUSH2 0xF93 JUMP JUMPDEST PUSH2 0x2FF PUSH2 0x4EC CALLDATASIZE PUSH1 0x4 PUSH2 0x2685 JUMP JUMPDEST PUSH2 0xFA2 JUMP JUMPDEST PUSH2 0x2F4 PUSH2 0x4FF CALLDATASIZE PUSH1 0x4 PUSH2 0x282E JUMP JUMPDEST PUSH2 0xFB2 JUMP JUMPDEST PUSH2 0x2FF PUSH2 0x512 CALLDATASIZE PUSH1 0x4 PUSH2 0x2685 JUMP JUMPDEST PUSH1 0x12 PUSH1 0x20 MSTORE PUSH1 0x0 SWAP1 DUP2 MSTORE PUSH1 0x40 SWAP1 KECCAK256 SLOAD DUP2 JUMP JUMPDEST PUSH2 0x2F4 PUSH2 0xFBD JUMP JUMPDEST PUSH2 0x2FF PUSH1 0x14 DUP2 JUMP JUMPDEST PUSH2 0x2F4 PUSH2 0x542 CALLDATASIZE PUSH1 0x4 PUSH2 0x287B JUMP JUMPDEST PUSH2 0xFCD JUMP JUMPDEST PUSH2 0x2FF PUSH1 0xD SLOAD DUP2 JUMP JUMPDEST PUSH2 0x2A9 PUSH2 0x55E CALLDATASIZE PUSH1 0x4 PUSH2 0x2685 JUMP JUMPDEST PUSH2 0xFFF JUMP JUMPDEST PUSH2 0x2FF PUSH8 0x6124FEE993BC0000 DUP2 JUMP JUMPDEST PUSH2 0x28C PUSH2 0x580 CALLDATASIZE PUSH1 0x4 PUSH2 0x2957 JUMP JUMPDEST PUSH1 0x1 PUSH1 0x1 PUSH1 0xA0 SHL SUB SWAP2 DUP3 AND PUSH1 0x0 SWAP1 DUP2 MSTORE PUSH1 0x5 PUSH1 0x20 SWAP1 DUP2 MSTORE PUSH1 0x40 DUP1 DUP4 KECCAK256 SWAP4 SWAP1 SWAP5 AND DUP3 MSTORE SWAP2 SWAP1 SWAP2 MSTORE KECCAK256 SLOAD PUSH1 0xFF AND SWAP1 JUMP JUMPDEST PUSH2 0x2F4 PUSH2 0x5BC CALLDATASIZE PUSH1 0x4 PUSH2 0x2805 JUMP JUMPDEST PUSH2 0x11B3 JUMP JUMPDEST PUSH2 0x2FF PUSH9 0x2B5E3AF16B1880000 DUP2 JUMP JUMPDEST PUSH2 0x2FF PUSH1 0x5 DUP2 JUMP JUMPDEST PUSH1 0x0 PUSH1 0x1 PUSH1 0x1 PUSH1 0xE0 SHL SUB NOT DUP3 AND PUSH4 0x780E9D63 PUSH1 0xE0 SHL EQ DUP1 PUSH2 0x5FE JUMPI POP PUSH2 0x5FE DUP3 PUSH2 0x122C JUMP JUMPDEST SWAP3 SWAP2 POP POP JUMP JUMPDEST PUSH1 0x60 PUSH1 0x0 DUP1 SLOAD PUSH2 0x613 SWAP1 PUSH2 0x298A JUMP JUMPDEST DUP1 PUSH1 0x1F ADD PUSH1 0x20 DUP1 SWAP2 DIV MUL PUSH1 0x20 ADD PUSH1 0x40 MLOAD SWAP1 DUP2 ADD PUSH1 0x40 MSTORE DUP1 SWAP3 SWAP2 SWAP1 DUP2 DUP2 MSTORE PUSH1 0x20 ADD DUP3 DUP1 SLOAD PUSH2 0x63F SWAP1 PUSH2 0x298A JUMP JUMPDEST DUP1 ISZERO PUSH2 0x68C JUMPI DUP1 PUSH1 0x1F LT PUSH2 0x661 JUMPI PUSH2 0x100 DUP1 DUP4 SLOAD DIV MUL DUP4 MSTORE SWAP2 PUSH1 0x20 ADD SWAP2 PUSH2 0x68C JUMP JUMPDEST DUP3 ADD SWAP2 SWAP1 PUSH1 0x0 MSTORE PUSH1 0x20 PUSH1 0x0 KECCAK256 SWAP1 JUMPDEST DUP2 SLOAD DUP2 MSTORE SWAP1 PUSH1 0x1 ADD SWAP1 PUSH1 0x20 ADD DUP1 DUP4 GT PUSH2 0x66F JUMPI DUP3 SWAP1 SUB PUSH1 0x1F AND DUP3 ADD SWAP2 JUMPDEST POP POP POP POP POP SWAP1 POP SWAP1 JUMP JUMPDEST PUSH1 0x0 PUSH2 0x6A1 DUP3 PUSH2 0x127C JUMP JUMPDEST POP PUSH1 0x0 SWAP1 DUP2 MSTORE PUSH1 0x4 PUSH1 0x20 MSTORE PUSH1 0x40 SWAP1 KECCAK256 SLOAD PUSH1 0x1 PUSH1 0x1 PUSH1 0xA0 SHL SUB AND SWAP1 JUMP JUMPDEST PUSH1 0x0 PUSH2 0x6C8 DUP3 PUSH2 0xE9B JUMP JUMPDEST SWAP1 POP DUP1 PUSH1 0x1 PUSH1 0x1 PUSH1 0xA0 SHL SUB AND DUP4 PUSH1 0x1 PUSH1 0x1 PUSH1 0xA0 SHL SUB AND SUB PUSH2 0x73A JUMPI PUSH1 0x40 MLOAD PUSH3 0x461BCD PUSH1 0xE5 SHL DUP2 MSTORE PUSH1 0x20 PUSH1 0x4 DUP3 ADD MSTORE PUSH1 0x21 PUSH1 0x24 DUP3 ADD MSTORE PUSH32 0x4552433732313A20617070726F76616C20746F2063757272656E74206F776E65 PUSH1 0x44 DUP3 ADD MSTORE PUSH1 0x39 PUSH1 0xF9 SHL PUSH1 0x64 DUP3 ADD MSTORE PUSH1 0x84 ADD JUMPDEST PUSH1 0x40 MLOAD DUP1 SWAP2 SUB SWAP1 REVERT JUMPDEST CALLER PUSH1 0x1 PUSH1 0x1 PUSH1 0xA0 SHL SUB DUP3 AND EQ DUP1 PUSH2 0x756 JUMPI POP PUSH2 0x756 DUP2 CALLER PUSH2 0x580 JUMP JUMPDEST PUSH2 0x7C8 JUMPI PUSH1 0x40 MLOAD PUSH3 0x461BCD PUSH1 0xE5 SHL DUP2 MSTORE PUSH1 0x20 PUSH1 0x4 DUP3 ADD MSTORE PUSH1 0x3D PUSH1 0x24 DUP3 ADD MSTORE PUSH32 0x4552433732313A20617070726F76652063616C6C6572206973206E6F7420746F PUSH1 0x44 DUP3 ADD MSTORE PUSH32 0x6B656E206F776E6572206F7220617070726F76656420666F7220616C6C000000 PUSH1 0x64 DUP3 ADD MSTORE PUSH1 0x84 ADD PUSH2 0x731 JUMP JUMPDEST PUSH2 0x7D2 DUP4 DUP4 PUSH2 0x12DB JUMP JUMPDEST POP POP POP JUMP JUMPDEST PUSH2 0x7DF PUSH2 0x1349 JUMP JUMPDEST PUSH1 0x1 DUP2 PUSH1 0xFF AND LT ISZERO DUP1 ISZERO PUSH2 0x7F7 JUMPI POP PUSH1 0x3 DUP2 PUSH1 0xFF AND GT ISZERO JUMPDEST PUSH2 0x837 JUMPI PUSH1 0x40 MLOAD PUSH3 0x461BCD PUSH1 0xE5 SHL DUP2 MSTORE PUSH1 0x20 PUSH1 0x4 DUP3 ADD MSTORE PUSH1 0x11 PUSH1 0x24 DUP3 ADD MSTORE PUSH17 0x496E76616C696420636172642074797065 PUSH1 0x78 SHL PUSH1 0x44 DUP3 ADD MSTORE PUSH1 0x64 ADD PUSH2 0x731 JUMP JUMPDEST PUSH1 0x0 JUMPDEST PUSH1 0x5 DUP2 PUSH1 0xFF AND LT ISZERO PUSH2 0x88E JUMPI PUSH1 0x0 PUSH2 0x853 DUP4 PUSH1 0x5 PUSH2 0x1396 JUMP JUMPDEST SWAP1 POP PUSH2 0x87B CALLER DUP3 DUP5 PUSH1 0xFF AND DUP2 MLOAD DUP2 LT PUSH2 0x86E JUMPI PUSH2 0x86E PUSH2 0x29C4 JUMP JUMPDEST PUSH1 0x20 MUL PUSH1 0x20 ADD ADD MLOAD PUSH2 0x14E0 JUMP JUMPDEST POP DUP1 PUSH2 0x886 DUP2 PUSH2 0x29F0 JUMP JUMPDEST SWAP2 POP POP PUSH2 0x83A JUMP JUMPDEST POP PUSH1 0xB SLOAD PUSH1 0x40 MLOAD PUSH4 0x23B872DD PUSH1 0xE0 SHL DUP2 MSTORE CALLER PUSH1 0x4 DUP3 ADD MSTORE ADDRESS PUSH1 0x24 DUP3 ADD MSTORE PUSH9 0x2B5E3AF16B1880000 PUSH1 0x44 DUP3 ADD MSTORE PUSH1 0x1 PUSH1 0x1 PUSH1 0xA0 SHL SUB SWAP1 SWAP2 AND SWAP1 PUSH4 0x23B872DD SWAP1 PUSH1 0x64 ADD JUMPDEST PUSH1 0x20 PUSH1 0x40 MLOAD DUP1 DUP4 SUB DUP2 PUSH1 0x0 DUP8 GAS CALL ISZERO DUP1 ISZERO PUSH2 0x8EF JUMPI RETURNDATASIZE PUSH1 0x0 DUP1 RETURNDATACOPY RETURNDATASIZE PUSH1 0x0 REVERT JUMPDEST POP POP POP POP PUSH1 0x40 MLOAD RETURNDATASIZE PUSH1 0x1F NOT PUSH1 0x1F DUP3 ADD AND DUP3 ADD DUP1 PUSH1 0x40 MSTORE POP DUP2 ADD SWAP1 PUSH2 0x913 SWAP2 SWAP1 PUSH2 0x2A0F JUMP JUMPDEST POP POP JUMP JUMPDEST PUSH2 0x91F PUSH2 0x1866 JUMP JUMPDEST PUSH1 0x0 DUP5 DUP2 MSTORE PUSH1 0x10 PUSH1 0x20 SWAP1 DUP2 MSTORE PUSH1 0x40 DUP1 DUP4 KECCAK256 PUSH1 0xFF DUP8 AND DUP5 MSTORE SWAP1 SWAP2 MSTORE SWAP1 KECCAK256 PUSH2 0x946 DUP3 DUP5 DUP4 PUSH2 0x2A7A JUMP JUMPDEST POP POP POP POP POP JUMP JUMPDEST PUSH2 0x957 CALLER DUP3 PUSH2 0x18C0 JUMP JUMPDEST PUSH2 0x973 JUMPI PUSH1 0x40 MLOAD PUSH3 0x461BCD PUSH1 0xE5 SHL DUP2 MSTORE PUSH1 0x4 ADD PUSH2 0x731 SWAP1 PUSH2 0x2B3A JUMP JUMPDEST PUSH2 0x7D2 DUP4 DUP4 DUP4 PUSH2 0x193F JUMP JUMPDEST PUSH1 0x19 DUP2 DUP2 SLOAD DUP2 LT PUSH2 0x98E JUMPI PUSH1 0x0 DUP1 REVERT JUMPDEST PUSH1 0x0 SWAP2 DUP3 MSTORE PUSH1 0x20 SWAP1 SWAP2 KECCAK256 ADD SLOAD SWAP1 POP DUP2 JUMP JUMPDEST PUSH1 0x17 DUP2 DUP2 SLOAD DUP2 LT PUSH2 0x98E JUMPI PUSH1 0x0 DUP1 REVERT JUMPDEST PUSH1 0x0 PUSH2 0x9BA DUP4 PUSH2 0xEFB JUMP JUMPDEST DUP3 LT PUSH2 0xA1C JUMPI PUSH1 0x40 MLOAD PUSH3 0x461BCD PUSH1 0xE5 SHL DUP2 MSTORE PUSH1 0x20 PUSH1 0x4 DUP3 ADD MSTORE PUSH1 0x2B PUSH1 0x24 DUP3 ADD MSTORE PUSH32 0x455243373231456E756D657261626C653A206F776E657220696E646578206F75 PUSH1 0x44 DUP3 ADD MSTORE PUSH11 0x74206F6620626F756E6473 PUSH1 0xA8 SHL PUSH1 0x64 DUP3 ADD MSTORE PUSH1 0x84 ADD PUSH2 0x731 JUMP JUMPDEST POP PUSH1 0x1 PUSH1 0x1 PUSH1 0xA0 SHL SUB SWAP2 SWAP1 SWAP2 AND PUSH1 0x0 SWAP1 DUP2 MSTORE PUSH1 0x6 PUSH1 0x20 SWAP1 DUP2 MSTORE PUSH1 0x40 DUP1 DUP4 KECCAK256 SWAP4 DUP4 MSTORE SWAP3 SWAP1 MSTORE KECCAK256 SLOAD SWAP1 JUMP JUMPDEST PUSH2 0xA4D PUSH2 0x1866 JUMP JUMPDEST PUSH2 0xA59 DUP5 DUP5 DUP5 DUP5 PUSH2 0x1AB0 JUMP JUMPDEST POP POP POP POP JUMP JUMPDEST PUSH2 0xA67 PUSH2 0x1866 JUMP JUMPDEST PUSH1 0xB SLOAD PUSH1 0x40 MLOAD PUSH4 0x70A08231 PUSH1 0xE0 SHL DUP2 MSTORE ADDRESS PUSH1 0x4 DUP3 ADD MSTORE PUSH1 0x0 SWAP2 PUSH1 0x1 PUSH1 0x1 PUSH1 0xA0 SHL SUB AND SWAP1 PUSH4 0x70A08231 SWAP1 PUSH1 0x24 ADD PUSH1 0x20 PUSH1 0x40 MLOAD DUP1 DUP4 SUB DUP2 DUP7 GAS STATICCALL ISZERO DUP1 ISZERO PUSH2 0xAB0 JUMPI RETURNDATASIZE PUSH1 0x0 DUP1 RETURNDATACOPY RETURNDATASIZE PUSH1 0x0 REVERT JUMPDEST POP POP POP POP PUSH1 0x40 MLOAD RETURNDATASIZE PUSH1 0x1F NOT PUSH1 0x1F DUP3 ADD AND DUP3 ADD DUP1 PUSH1 0x40 MSTORE POP DUP2 ADD SWAP1 PUSH2 0xAD4 SWAP2 SWAP1 PUSH2 0x2B87 JUMP JUMPDEST PUSH1 0xB SLOAD PUSH1 0x40 MLOAD PUSH4 0xA9059CBB PUSH1 0xE0 SHL DUP2 MSTORE CALLER PUSH1 0x4 DUP3 ADD MSTORE PUSH1 0x24 DUP2 ADD DUP4 SWAP1 MSTORE SWAP2 SWAP3 POP PUSH1 0x1 PUSH1 0x1 PUSH1 0xA0 SHL SUB AND SWAP1 PUSH4 0xA9059CBB SWAP1 PUSH1 0x44 ADD PUSH2 0x8D0 JUMP JUMPDEST PUSH2 0x7D2 DUP4 DUP4 DUP4 PUSH1 0x40 MLOAD DUP1 PUSH1 0x20 ADD PUSH1 0x40 MSTORE DUP1 PUSH1 0x0 DUP2 MSTORE POP PUSH2 0xFCD JUMP JUMPDEST CALLER PUSH2 0xB31 DUP3 PUSH2 0xE9B JUMP JUMPDEST PUSH1 0x1 PUSH1 0x1 PUSH1 0xA0 SHL SUB AND EQ PUSH2 0xB92 JUMPI PUSH1 0x40 MLOAD PUSH3 0x461BCD PUSH1 0xE5 SHL DUP2 MSTORE PUSH1 0x20 PUSH1 0x4 DUP3 ADD MSTORE PUSH1 0x22 PUSH1 0x24 DUP3 ADD MSTORE PUSH32 0x4F6E6C7920746865206F776E65722063616E206275726E207468697320746F6B PUSH1 0x44 DUP3 ADD MSTORE PUSH2 0x32B7 PUSH1 0xF1 SHL PUSH1 0x64 DUP3 ADD MSTORE PUSH1 0x84 ADD PUSH2 0x731 JUMP JUMPDEST PUSH1 0xB SLOAD PUSH1 0x40 MLOAD PUSH4 0x70A08231 PUSH1 0xE0 SHL DUP2 MSTORE ADDRESS PUSH1 0x4 DUP3 ADD MSTORE PUSH8 0x6124FEE993BC0000 SWAP2 PUSH1 0x1 PUSH1 0x1 PUSH1 0xA0 SHL SUB AND SWAP1 PUSH4 0x70A08231 SWAP1 PUSH1 0x24 ADD PUSH1 0x20 PUSH1 0x40 MLOAD DUP1 DUP4 SUB DUP2 DUP7 GAS STATICCALL ISZERO DUP1 ISZERO PUSH2 0xBE2 JUMPI RETURNDATASIZE PUSH1 0x0 DUP1 RETURNDATACOPY RETURNDATASIZE PUSH1 0x0 REVERT JUMPDEST POP POP POP POP PUSH1 0x40 MLOAD RETURNDATASIZE PUSH1 0x1F NOT PUSH1 0x1F DUP3 ADD AND DUP3 ADD DUP1 PUSH1 0x40 MSTORE POP DUP2 ADD SWAP1 PUSH2 0xC06 SWAP2 SWAP1 PUSH2 0x2B87 JUMP JUMPDEST LT ISZERO PUSH2 0xC6C JUMPI PUSH1 0x40 MLOAD PUSH3 0x461BCD PUSH1 0xE5 SHL DUP2 MSTORE PUSH1 0x20 PUSH1 0x4 DUP3 ADD MSTORE PUSH1 0x2F PUSH1 0x24 DUP3 ADD MSTORE PUSH32 0x436F6E74726163742068617320696E73756666696369656E742062616C616E63 PUSH1 0x44 DUP3 ADD MSTORE PUSH15 0x19481D1BC81C185E481C995DD85C99 PUSH1 0x8A SHL PUSH1 0x64 DUP3 ADD MSTORE PUSH1 0x84 ADD PUSH2 0x731 JUMP JUMPDEST CALLER PUSH1 0x0 SWAP1 DUP2 MSTORE PUSH1 0x16 PUSH1 0x20 MSTORE PUSH1 0x40 SWAP1 KECCAK256 SLOAD PUSH1 0x14 SLOAD TIMESTAMP SWAP2 SWAP1 PUSH2 0xC8C DUP3 DUP5 PUSH2 0x2BA0 JUMP JUMPDEST GT ISZERO PUSH2 0xCB2 JUMPI CALLER PUSH1 0x0 SWAP1 DUP2 MSTORE PUSH1 0x15 PUSH1 0x20 SWAP1 DUP2 MSTORE PUSH1 0x40 DUP1 DUP4 KECCAK256 DUP4 SWAP1 SSTORE PUSH1 0x16 SWAP1 SWAP2 MSTORE SWAP1 KECCAK256 DUP3 SWAP1 SSTORE JUMPDEST PUSH1 0x13 SLOAD CALLER PUSH1 0x0 SWAP1 DUP2 MSTORE PUSH1 0x15 PUSH1 0x20 MSTORE PUSH1 0x40 SWAP1 KECCAK256 SLOAD LT PUSH2 0xD21 JUMPI PUSH1 0x40 MLOAD PUSH3 0x461BCD PUSH1 0xE5 SHL DUP2 MSTORE PUSH1 0x20 PUSH1 0x4 DUP3 ADD MSTORE PUSH1 0x26 PUSH1 0x24 DUP3 ADD MSTORE PUSH32 0x4275726E206C696D6974207265616368656420666F7220746869732074696D65 PUSH1 0x44 DUP3 ADD MSTORE PUSH6 0x206672616D65 PUSH1 0xD0 SHL PUSH1 0x64 DUP3 ADD MSTORE PUSH1 0x84 ADD PUSH2 0x731 JUMP JUMPDEST PUSH2 0xD2A DUP4 PUSH2 0x1CC6 JUMP JUMPDEST CALLER PUSH1 0x0 SWAP1 DUP2 MSTORE PUSH1 0x15 PUSH1 0x20 MSTORE PUSH1 0x40 DUP2 KECCAK256 DUP1 SLOAD PUSH1 0x1 SWAP3 SWAP1 PUSH2 0xD4A SWAP1 DUP5 SWAP1 PUSH2 0x2BB3 JUMP JUMPDEST SWAP1 SWAP2 SSTORE POP POP PUSH1 0xB SLOAD PUSH1 0x40 MLOAD PUSH4 0xA9059CBB PUSH1 0xE0 SHL DUP2 MSTORE CALLER PUSH1 0x4 DUP3 ADD MSTORE PUSH8 0x6124FEE993BC0000 PUSH1 0x24 DUP3 ADD DUP2 SWAP1 MSTORE SWAP2 PUSH1 0x1 PUSH1 0x1 PUSH1 0xA0 SHL SUB AND SWAP1 PUSH4 0xA9059CBB SWAP1 PUSH1 0x44 ADD PUSH1 0x20 PUSH1 0x40 MLOAD DUP1 DUP4 SUB DUP2 PUSH1 0x0 DUP8 GAS CALL ISZERO DUP1 ISZERO PUSH2 0xDA8 JUMPI RETURNDATASIZE PUSH1 0x0 DUP1 RETURNDATACOPY RETURNDATASIZE PUSH1 0x0 REVERT JUMPDEST POP POP POP POP PUSH1 0x40 MLOAD RETURNDATASIZE PUSH1 0x1F NOT PUSH1 0x1F DUP3 ADD AND DUP3 ADD DUP1 PUSH1 0x40 MSTORE POP DUP2 ADD SWAP1 PUSH2 0x946 SWAP2 SWAP1 PUSH2 0x2A0F JUMP JUMPDEST PUSH2 0xDD4 PUSH2 0x1866 JUMP JUMPDEST PUSH2 0xDDC PUSH2 0x1D69 JUMP JUMPDEST JUMP JUMPDEST PUSH2 0xDE6 PUSH2 0x1866 JUMP JUMPDEST PUSH1 0xB DUP1 SLOAD PUSH1 0x1 PUSH1 0x1 PUSH1 0xA0 SHL SUB NOT AND PUSH1 0x1 PUSH1 0x1 PUSH1 0xA0 SHL SUB SWAP3 SWAP1 SWAP3 AND SWAP2 SWAP1 SWAP2 OR SWAP1 SSTORE JUMP JUMPDEST PUSH1 0x0 PUSH2 0xE13 PUSH1 0x8 SLOAD SWAP1 JUMP JUMPDEST DUP3 LT PUSH2 0xE76 JUMPI PUSH1 0x40 MLOAD PUSH3 0x461BCD PUSH1 0xE5 SHL DUP2 MSTORE PUSH1 0x20 PUSH1 0x4 DUP3 ADD MSTORE PUSH1 0x2C PUSH1 0x24 DUP3 ADD MSTORE PUSH32 0x455243373231456E756D657261626C653A20676C6F62616C20696E646578206F PUSH1 0x44 DUP3 ADD MSTORE PUSH12 0x7574206F6620626F756E6473 PUSH1 0xA0 SHL PUSH1 0x64 DUP3 ADD MSTORE PUSH1 0x84 ADD PUSH2 0x731 JUMP JUMPDEST PUSH1 0x8 DUP3 DUP2 SLOAD DUP2 LT PUSH2 0xE89 JUMPI PUSH2 0xE89 PUSH2 0x29C4 JUMP JUMPDEST SWAP1 PUSH1 0x0 MSTORE PUSH1 0x20 PUSH1 0x0 KECCAK256 ADD SLOAD SWAP1 POP SWAP2 SWAP1 POP JUMP JUMPDEST PUSH1 0x0 DUP2 DUP2 MSTORE PUSH1 0x2 PUSH1 0x20 MSTORE PUSH1 0x40 DUP2 KECCAK256 SLOAD PUSH1 0x1 PUSH1 0x1 PUSH1 0xA0 SHL SUB AND DUP1 PUSH2 0x5FE JUMPI PUSH1 0x40 MLOAD PUSH3 0x461BCD PUSH1 0xE5 SHL DUP2 MSTORE PUSH1 0x20 PUSH1 0x4 DUP3 ADD MSTORE PUSH1 0x18 PUSH1 0x24 DUP3 ADD MSTORE PUSH24 0x115490CDCC8C4E881A5B9D985B1A59081D1BDAD95B881251 PUSH1 0x42 SHL PUSH1 0x44 DUP3 ADD MSTORE PUSH1 0x64 ADD PUSH2 0x731 JUMP JUMPDEST PUSH1 0x0 PUSH1 0x1 PUSH1 0x1 PUSH1 0xA0 SHL SUB DUP3 AND PUSH2 0xF65 JUMPI PUSH1 0x40 MLOAD PUSH3 0x461BCD PUSH1 0xE5 SHL DUP2 MSTORE PUSH1 0x20 PUSH1 0x4 DUP3 ADD MSTORE PUSH1 0x29 PUSH1 0x24 DUP3 ADD MSTORE PUSH32 0x4552433732313A2061646472657373207A65726F206973206E6F742061207661 PUSH1 0x44 DUP3 ADD MSTORE PUSH9 0x3634B21037BBB732B9 PUSH1 0xB9 SHL PUSH1 0x64 DUP3 ADD MSTORE PUSH1 0x84 ADD PUSH2 0x731 JUMP JUMPDEST POP PUSH1 0x1 PUSH1 0x1 PUSH1 0xA0 SHL SUB AND PUSH1 0x0 SWAP1 DUP2 MSTORE PUSH1 0x3 PUSH1 0x20 MSTORE PUSH1 0x40 SWAP1 KECCAK256 SLOAD SWAP1 JUMP JUMPDEST PUSH2 0xF89 PUSH2 0x1866 JUMP JUMPDEST PUSH2 0xDDC PUSH1 0x0 PUSH2 0x1DC9 JUMP JUMPDEST PUSH1 0x60 PUSH1 0x1 DUP1 SLOAD PUSH2 0x613 SWAP1 PUSH2 0x298A JUMP JUMPDEST PUSH1 0x18 DUP2 DUP2 SLOAD DUP2 LT PUSH2 0x98E JUMPI PUSH1 0x0 DUP1 REVERT JUMPDEST PUSH2 0x913 CALLER DUP4 DUP4 PUSH2 0x1E1B JUMP JUMPDEST PUSH2 0xFC5 PUSH2 0x1866 JUMP JUMPDEST PUSH2 0xDDC PUSH2 0x1EE9 JUMP JUMPDEST PUSH2 0xFD7 CALLER DUP4 PUSH2 0x18C0 JUMP JUMPDEST PUSH2 0xFF3 JUMPI PUSH1 0x40 MLOAD PUSH3 0x461BCD PUSH1 0xE5 SHL DUP2 MSTORE PUSH1 0x4 ADD PUSH2 0x731 SWAP1 PUSH2 0x2B3A JUMP JUMPDEST PUSH2 0xA59 DUP5 DUP5 DUP5 DUP5 PUSH2 0x1F25 JUMP JUMPDEST PUSH1 0x0 DUP2 DUP2 MSTORE PUSH1 0x2 PUSH1 0x20 MSTORE PUSH1 0x40 SWAP1 KECCAK256 SLOAD PUSH1 0x60 SWAP1 PUSH1 0x1 PUSH1 0x1 PUSH1 0xA0 SHL SUB AND PUSH2 0x107E JUMPI PUSH1 0x40 MLOAD PUSH3 0x461BCD PUSH1 0xE5 SHL DUP2 MSTORE PUSH1 0x20 PUSH1 0x4 DUP3 ADD MSTORE PUSH1 0x2F PUSH1 0x24 DUP3 ADD MSTORE PUSH32 0x4552433732314D657461646174613A2055524920717565727920666F72206E6F PUSH1 0x44 DUP3 ADD MSTORE PUSH15 0x3732BC34B9BA32B73A103A37B5B2B7 PUSH1 0x89 SHL PUSH1 0x64 DUP3 ADD MSTORE PUSH1 0x84 ADD PUSH2 0x731 JUMP JUMPDEST PUSH1 0x0 DUP3 DUP2 MSTORE PUSH1 0x11 PUSH1 0x20 SWAP1 DUP2 MSTORE PUSH1 0x40 DUP1 DUP4 KECCAK256 DUP2 MLOAD DUP1 DUP4 ADD DUP4 MSTORE DUP2 SLOAD DUP1 DUP3 MSTORE PUSH1 0x1 SWAP1 SWAP3 ADD SLOAD PUSH1 0xFF SWAP1 DUP2 AND DUP3 DUP7 ADD SWAP1 DUP2 MSTORE SWAP3 DUP7 MSTORE PUSH1 0x10 DUP6 MSTORE DUP4 DUP7 KECCAK256 SWAP3 MLOAD AND DUP6 MSTORE SWAP3 MSTORE DUP3 KECCAK256 DUP1 SLOAD SWAP2 SWAP3 SWAP2 PUSH2 0x10CD SWAP1 PUSH2 0x298A JUMP JUMPDEST DUP1 PUSH1 0x1F ADD PUSH1 0x20 DUP1 SWAP2 DIV MUL PUSH1 0x20 ADD PUSH1 0x40 MLOAD SWAP1 DUP2 ADD PUSH1 0x40 MSTORE DUP1 SWAP3 SWAP2 SWAP1 DUP2 DUP2 MSTORE PUSH1 0x20 ADD DUP3 DUP1 SLOAD PUSH2 0x10F9 SWAP1 PUSH2 0x298A JUMP JUMPDEST DUP1 ISZERO PUSH2 0x1146 JUMPI DUP1 PUSH1 0x1F LT PUSH2 0x111B JUMPI PUSH2 0x100 DUP1 DUP4 SLOAD DIV MUL DUP4 MSTORE SWAP2 PUSH1 0x20 ADD SWAP2 PUSH2 0x1146 JUMP JUMPDEST DUP3 ADD SWAP2 SWAP1 PUSH1 0x0 MSTORE PUSH1 0x20 PUSH1 0x0 KECCAK256 SWAP1 JUMPDEST DUP2 SLOAD DUP2 MSTORE SWAP1 PUSH1 0x1 ADD SWAP1 PUSH1 0x20 ADD DUP1 DUP4 GT PUSH2 0x1129 JUMPI DUP3 SWAP1 SUB PUSH1 0x1F AND DUP3 ADD SWAP2 JUMPDEST POP POP POP POP POP SWAP1 POP PUSH1 0x0 DUP2 MLOAD GT PUSH2 0x11AC JUMPI PUSH1 0x40 MLOAD PUSH3 0x461BCD PUSH1 0xE5 SHL DUP2 MSTORE PUSH1 0x20 PUSH1 0x4 DUP3 ADD MSTORE PUSH1 0x25 PUSH1 0x24 DUP3 ADD MSTORE PUSH32 0x4552433732314D657461646174613A20555249206E6F742073657420666F7220 PUSH1 0x44 DUP3 ADD MSTORE PUSH5 0x3A37B5B2B7 PUSH1 0xD9 SHL PUSH1 0x64 DUP3 ADD MSTORE PUSH1 0x84 ADD PUSH2 0x731 JUMP JUMPDEST SWAP4 SWAP3 POP POP POP JUMP JUMPDEST PUSH2 0x11BB PUSH2 0x1866 JUMP JUMPDEST PUSH1 0x1 PUSH1 0x1 PUSH1 0xA0 SHL SUB DUP2 AND PUSH2 0x1220 JUMPI PUSH1 0x40 MLOAD PUSH3 0x461BCD PUSH1 0xE5 SHL DUP2 MSTORE PUSH1 0x20 PUSH1 0x4 DUP3 ADD MSTORE PUSH1 0x26 PUSH1 0x24 DUP3 ADD MSTORE PUSH32 0x4F776E61626C653A206E6577206F776E657220697320746865207A65726F2061 PUSH1 0x44 DUP3 ADD MSTORE PUSH6 0x646472657373 PUSH1 0xD0 SHL PUSH1 0x64 DUP3 ADD MSTORE PUSH1 0x84 ADD PUSH2 0x731 JUMP JUMPDEST PUSH2 0x1229 DUP2 PUSH2 0x1DC9 JUMP JUMPDEST POP JUMP JUMPDEST PUSH1 0x0 PUSH1 0x1 PUSH1 0x1 PUSH1 0xE0 SHL SUB NOT DUP3 AND PUSH4 0x80AC58CD PUSH1 0xE0 SHL EQ DUP1 PUSH2 0x125D JUMPI POP PUSH1 0x1 PUSH1 0x1 PUSH1 0xE0 SHL SUB NOT DUP3 AND PUSH4 0x5B5E139F PUSH1 0xE0 SHL EQ JUMPDEST DUP1 PUSH2 0x5FE JUMPI POP PUSH4 0x1FFC9A7 PUSH1 0xE0 SHL PUSH1 0x1 PUSH1 0x1 PUSH1 0xE0 SHL SUB NOT DUP4 AND EQ PUSH2 0x5FE JUMP JUMPDEST PUSH1 0x0 DUP2 DUP2 MSTORE PUSH1 0x2 PUSH1 0x20 MSTORE PUSH1 0x40 SWAP1 KECCAK256 SLOAD PUSH1 0x1 PUSH1 0x1 PUSH1 0xA0 SHL SUB AND PUSH2 0x1229 JUMPI PUSH1 0x40 MLOAD PUSH3 0x461BCD PUSH1 0xE5 SHL DUP2 MSTORE PUSH1 0x20 PUSH1 0x4 DUP3 ADD MSTORE PUSH1 0x18 PUSH1 0x24 DUP3 ADD MSTORE PUSH24 0x115490CDCC8C4E881A5B9D985B1A59081D1BDAD95B881251 PUSH1 0x42 SHL PUSH1 0x44 DUP3 ADD MSTORE PUSH1 0x64 ADD PUSH2 0x731 JUMP JUMPDEST PUSH1 0x0 DUP2 DUP2 MSTORE PUSH1 0x4 PUSH1 0x20 MSTORE PUSH1 0x40 SWAP1 KECCAK256 DUP1 SLOAD PUSH1 0x1 PUSH1 0x1 PUSH1 0xA0 SHL SUB NOT AND PUSH1 0x1 PUSH1 0x1 PUSH1 0xA0 SHL SUB DUP5 AND SWAP1 DUP2 OR SWAP1 SWAP2 SSTORE DUP2 SWAP1 PUSH2 0x1310 DUP3 PUSH2 0xE9B JUMP JUMPDEST PUSH1 0x1 PUSH1 0x1 PUSH1 0xA0 SHL SUB AND PUSH32 0x8C5BE1E5EBEC7D5BD14F71427D1E84F3DD0314C0F7B2291E5B200AC8C7C3B925 PUSH1 0x40 MLOAD PUSH1 0x40 MLOAD DUP1 SWAP2 SUB SWAP1 LOG4 POP POP JUMP JUMPDEST PUSH1 0xA SLOAD PUSH1 0x1 PUSH1 0xA0 SHL SWAP1 DIV PUSH1 0xFF AND ISZERO PUSH2 0xDDC JUMPI PUSH1 0x40 MLOAD PUSH3 0x461BCD PUSH1 0xE5 SHL DUP2 MSTORE PUSH1 0x20 PUSH1 0x4 DUP3 ADD MSTORE PUSH1 0x10 PUSH1 0x24 DUP3 ADD MSTORE PUSH16 0x14185D5CD8589B194E881C185D5CD959 PUSH1 0x82 SHL PUSH1 0x44 DUP3 ADD MSTORE PUSH1 0x64 ADD PUSH2 0x731 JUMP JUMPDEST PUSH1 0x60 PUSH1 0x0 DUP3 PUSH8 0xFFFFFFFFFFFFFFFF DUP2 GT ISZERO PUSH2 0x13B3 JUMPI PUSH2 0x13B3 PUSH2 0x2865 JUMP JUMPDEST PUSH1 0x40 MLOAD SWAP1 DUP1 DUP3 MSTORE DUP1 PUSH1 0x20 MUL PUSH1 0x20 ADD DUP3 ADD PUSH1 0x40 MSTORE DUP1 ISZERO PUSH2 0x13DC JUMPI DUP2 PUSH1 0x20 ADD PUSH1 0x20 DUP3 MUL DUP1 CALLDATASIZE DUP4 CALLDATACOPY ADD SWAP1 POP JUMPDEST POP SWAP1 POP PUSH1 0x0 JUMPDEST DUP4 DUP2 LT ISZERO PUSH2 0x14D8 JUMPI DUP5 PUSH1 0xFF AND PUSH1 0x1 SUB PUSH2 0x1448 JUMPI PUSH1 0x17 SLOAD PUSH1 0x0 SWAP1 PUSH2 0x1404 SWAP1 PUSH2 0x1F58 JUMP JUMPDEST SWAP1 POP PUSH1 0x17 DUP2 DUP2 SLOAD DUP2 LT PUSH2 0x1419 JUMPI PUSH2 0x1419 PUSH2 0x29C4 JUMP JUMPDEST SWAP1 PUSH1 0x0 MSTORE PUSH1 0x20 PUSH1 0x0 KECCAK256 ADD SLOAD DUP4 DUP4 DUP2 MLOAD DUP2 LT PUSH2 0x1436 JUMPI PUSH2 0x1436 PUSH2 0x29C4 JUMP JUMPDEST PUSH1 0x20 MUL PUSH1 0x20 ADD ADD DUP2 DUP2 MSTORE POP POP POP PUSH2 0x14C6 JUMP JUMPDEST DUP5 PUSH1 0xFF AND PUSH1 0x2 SUB PUSH2 0x1477 JUMPI PUSH1 0x18 SLOAD PUSH1 0x0 SWAP1 PUSH2 0x1462 SWAP1 PUSH2 0x1F58 JUMP JUMPDEST SWAP1 POP PUSH1 0x18 DUP2 DUP2 SLOAD DUP2 LT PUSH2 0x1419 JUMPI PUSH2 0x1419 PUSH2 0x29C4 JUMP JUMPDEST PUSH1 0x19 SLOAD PUSH1 0x0 SWAP1 PUSH2 0x1486 SWAP1 PUSH2 0x1F58 JUMP JUMPDEST SWAP1 POP PUSH1 0x19 DUP2 DUP2 SLOAD DUP2 LT PUSH2 0x149B JUMPI PUSH2 0x149B PUSH2 0x29C4 JUMP JUMPDEST SWAP1 PUSH1 0x0 MSTORE PUSH1 0x20 PUSH1 0x0 KECCAK256 ADD SLOAD DUP4 DUP4 DUP2 MLOAD DUP2 LT PUSH2 0x14B8 JUMPI PUSH2 0x14B8 PUSH2 0x29C4 JUMP JUMPDEST PUSH1 0x20 MUL PUSH1 0x20 ADD ADD DUP2 DUP2 MSTORE POP POP POP JUMPDEST DUP1 PUSH2 0x14D0 DUP2 PUSH2 0x2BC6 JUMP JUMPDEST SWAP2 POP POP PUSH2 0x13E2 JUMP JUMPDEST POP SWAP4 SWAP3 POP POP POP JUMP JUMPDEST PUSH1 0x64 PUSH2 0x14EB PUSH1 0xF SLOAD SWAP1 JUMP JUMPDEST LT PUSH2 0x1528 JUMPI PUSH1 0x40 MLOAD PUSH3 0x461BCD PUSH1 0xE5 SHL DUP2 MSTORE PUSH1 0x20 PUSH1 0x4 DUP3 ADD MSTORE PUSH1 0xD PUSH1 0x24 DUP3 ADD MSTORE PUSH13 0x139BC818D85C991CC81B19599D PUSH1 0x9A SHL PUSH1 0x44 DUP3 ADD MSTORE PUSH1 0x64 ADD PUSH2 0x731 JUMP JUMPDEST PUSH1 0x0 DUP2 DUP2 MSTORE PUSH1 0x12 PUSH1 0x20 MSTORE PUSH1 0x40 SWAP1 KECCAK256 SLOAD PUSH2 0x1583 JUMPI PUSH1 0x40 MLOAD PUSH3 0x461BCD PUSH1 0xE5 SHL DUP2 MSTORE PUSH1 0x20 PUSH1 0x4 DUP3 ADD MSTORE PUSH1 0x1B PUSH1 0x24 DUP3 ADD MSTORE PUSH32 0x4E6F2073746F636B206C65667420666F72207468697320636172640000000000 PUSH1 0x44 DUP3 ADD MSTORE PUSH1 0x64 ADD PUSH2 0x731 JUMP JUMPDEST PUSH1 0x0 PUSH2 0x158D PUSH2 0x1FC2 JUMP JUMPDEST SWAP1 POP PUSH2 0x159D PUSH1 0xF DUP1 SLOAD PUSH1 0x1 ADD SWAP1 SSTORE JUMP JUMPDEST PUSH1 0x0 PUSH2 0x15A8 PUSH1 0xF SLOAD SWAP1 JUMP JUMPDEST PUSH1 0x40 DUP1 MLOAD DUP1 DUP3 ADD DUP3 MSTORE DUP6 DUP2 MSTORE PUSH1 0xFF DUP6 DUP2 AND PUSH1 0x20 DUP1 DUP5 ADD SWAP2 DUP3 MSTORE PUSH1 0x0 DUP7 DUP2 MSTORE PUSH1 0x11 DUP3 MSTORE DUP6 DUP2 KECCAK256 SWAP5 MLOAD DUP6 SSTORE SWAP2 MLOAD PUSH1 0x1 SWAP5 DUP6 ADD DUP1 SLOAD PUSH1 0xFF NOT AND SWAP2 SWAP1 SWAP5 AND OR SWAP1 SWAP3 SSTORE DUP8 DUP2 MSTORE PUSH1 0x12 SWAP1 SWAP2 MSTORE SWAP2 DUP3 KECCAK256 DUP1 SLOAD SWAP4 SWAP5 POP SWAP1 SWAP3 SWAP1 SWAP2 SWAP1 PUSH2 0x1606 SWAP1 DUP5 SWAP1 PUSH2 0x2BA0 JUMP JUMPDEST SWAP1 SWAP2 SSTORE POP POP PUSH1 0x0 DUP4 DUP2 MSTORE PUSH1 0x12 PUSH1 0x20 MSTORE PUSH1 0x40 DUP2 KECCAK256 SLOAD SWAP1 SUB PUSH2 0x185C JUMPI PUSH2 0x162B PUSH1 0x3 DUP5 PUSH2 0x2BDF JUMP JUMPDEST PUSH1 0x0 SUB PUSH2 0x16F1 JUMPI PUSH1 0x0 JUMPDEST PUSH1 0x17 SLOAD DUP2 LT ISZERO PUSH2 0x16EB JUMPI DUP4 PUSH1 0x17 DUP3 DUP2 SLOAD DUP2 LT PUSH2 0x1653 JUMPI PUSH2 0x1653 PUSH2 0x29C4 JUMP JUMPDEST SWAP1 PUSH1 0x0 MSTORE PUSH1 0x20 PUSH1 0x0 KECCAK256 ADD SLOAD SUB PUSH2 0x16D9 JUMPI PUSH1 0x17 DUP1 SLOAD PUSH2 0x1673 SWAP1 PUSH1 0x1 SWAP1 PUSH2 0x2BA0 JUMP JUMPDEST DUP2 SLOAD DUP2 LT PUSH2 0x1683 JUMPI PUSH2 0x1683 PUSH2 0x29C4 JUMP JUMPDEST SWAP1 PUSH1 0x0 MSTORE PUSH1 0x20 PUSH1 0x0 KECCAK256 ADD SLOAD PUSH1 0x17 DUP3 DUP2 SLOAD DUP2 LT PUSH2 0x16A1 JUMPI PUSH2 0x16A1 PUSH2 0x29C4 JUMP JUMPDEST PUSH1 0x0 SWAP2 DUP3 MSTORE PUSH1 0x20 SWAP1 SWAP2 KECCAK256 ADD SSTORE PUSH1 0x17 DUP1 SLOAD DUP1 PUSH2 0x16BE JUMPI PUSH2 0x16BE PUSH2 0x2C01 JUMP JUMPDEST PUSH1 0x1 SWAP1 SUB DUP2 DUP2 SWAP1 PUSH1 0x0 MSTORE PUSH1 0x20 PUSH1 0x0 KECCAK256 ADD PUSH1 0x0 SWAP1 SSTORE SWAP1 SSTORE PUSH2 0x16EB JUMP JUMPDEST DUP1 PUSH2 0x16E3 DUP2 PUSH2 0x2BC6 JUMP JUMPDEST SWAP2 POP POP PUSH2 0x1635 JUMP JUMPDEST POP PUSH2 0x185C JUMP JUMPDEST PUSH2 0x16FC PUSH1 0x3 DUP5 PUSH2 0x2BDF JUMP JUMPDEST PUSH1 0x1 SUB PUSH2 0x17A1 JUMPI PUSH1 0x0 JUMPDEST PUSH1 0x18 SLOAD DUP2 LT ISZERO PUSH2 0x16EB JUMPI DUP4 PUSH1 0x18 DUP3 DUP2 SLOAD DUP2 LT PUSH2 0x1724 JUMPI PUSH2 0x1724 PUSH2 0x29C4 JUMP JUMPDEST SWAP1 PUSH1 0x0 MSTORE PUSH1 0x20 PUSH1 0x0 KECCAK256 ADD SLOAD SUB PUSH2 0x178F JUMPI PUSH1 0x18 DUP1 SLOAD PUSH2 0x1744 SWAP1 PUSH1 0x1 SWAP1 PUSH2 0x2BA0 JUMP JUMPDEST DUP2 SLOAD DUP2 LT PUSH2 0x1754 JUMPI PUSH2 0x1754 PUSH2 0x29C4 JUMP JUMPDEST SWAP1 PUSH1 0x0 MSTORE PUSH1 0x20 PUSH1 0x0 KECCAK256 ADD SLOAD PUSH1 0x18 DUP3 DUP2 SLOAD DUP2 LT PUSH2 0x1772 JUMPI PUSH2 0x1772 PUSH2 0x29C4 JUMP JUMPDEST PUSH1 0x0 SWAP2 DUP3 MSTORE PUSH1 0x20 SWAP1 SWAP2 KECCAK256 ADD SSTORE PUSH1 0x18 DUP1 SLOAD DUP1 PUSH2 0x16BE JUMPI PUSH2 0x16BE PUSH2 0x2C01 JUMP JUMPDEST DUP1 PUSH2 0x1799 DUP2 PUSH2 0x2BC6 JUMP JUMPDEST SWAP2 POP POP PUSH2 0x1706 JUMP JUMPDEST PUSH1 0x0 JUMPDEST PUSH1 0x19 SLOAD DUP2 LT ISZERO PUSH2 0x185A JUMPI DUP4 PUSH1 0x19 DUP3 DUP2 SLOAD DUP2 LT PUSH2 0x17C2 JUMPI PUSH2 0x17C2 PUSH2 0x29C4 JUMP JUMPDEST SWAP1 PUSH1 0x0 MSTORE PUSH1 0x20 PUSH1 0x0 KECCAK256 ADD SLOAD SUB PUSH2 0x1848 JUMPI PUSH1 0x19 DUP1 SLOAD PUSH2 0x17E2 SWAP1 PUSH1 0x1 SWAP1 PUSH2 0x2BA0 JUMP JUMPDEST DUP2 SLOAD DUP2 LT PUSH2 0x17F2 JUMPI PUSH2 0x17F2 PUSH2 0x29C4 JUMP JUMPDEST SWAP1 PUSH1 0x0 MSTORE PUSH1 0x20 PUSH1 0x0 KECCAK256 ADD SLOAD PUSH1 0x19 DUP3 DUP2 SLOAD DUP2 LT PUSH2 0x1810 JUMPI PUSH2 0x1810 PUSH2 0x29C4 JUMP JUMPDEST PUSH1 0x0 SWAP2 DUP3 MSTORE PUSH1 0x20 SWAP1 SWAP2 KECCAK256 ADD SSTORE PUSH1 0x19 DUP1 SLOAD DUP1 PUSH2 0x182D JUMPI PUSH2 0x182D PUSH2 0x2C01 JUMP JUMPDEST PUSH1 0x1 SWAP1 SUB DUP2 DUP2 SWAP1 PUSH1 0x0 MSTORE PUSH1 0x20 PUSH1 0x0 KECCAK256 ADD PUSH1 0x0 SWAP1 SSTORE SWAP1 SSTORE PUSH2 0x185A JUMP JUMPDEST DUP1 PUSH2 0x1852 DUP2 PUSH2 0x2BC6 JUMP JUMPDEST SWAP2 POP POP PUSH2 0x17A4 JUMP JUMPDEST POP JUMPDEST PUSH2 0xA59 DUP5 DUP3 PUSH2 0x2005 JUMP JUMPDEST PUSH1 0xA SLOAD PUSH1 0x1 PUSH1 0x1 PUSH1 0xA0 SHL SUB AND CALLER EQ PUSH2 0xDDC JUMPI PUSH1 0x40 MLOAD PUSH3 0x461BCD PUSH1 0xE5 SHL DUP2 MSTORE PUSH1 0x20 PUSH1 0x4 DUP3 ADD DUP2 SWAP1 MSTORE PUSH1 0x24 DUP3 ADD MSTORE PUSH32 0x4F776E61626C653A2063616C6C6572206973206E6F7420746865206F776E6572 PUSH1 0x44 DUP3 ADD MSTORE PUSH1 0x64 ADD PUSH2 0x731 JUMP JUMPDEST PUSH1 0x0 DUP1 PUSH2 0x18CC DUP4 PUSH2 0xE9B JUMP JUMPDEST SWAP1 POP DUP1 PUSH1 0x1 PUSH1 0x1 PUSH1 0xA0 SHL SUB AND DUP5 PUSH1 0x1 PUSH1 0x1 PUSH1 0xA0 SHL SUB AND EQ DUP1 PUSH2 0x1913 JUMPI POP PUSH1 0x1 PUSH1 0x1 PUSH1 0xA0 SHL SUB DUP1 DUP3 AND PUSH1 0x0 SWAP1 DUP2 MSTORE PUSH1 0x5 PUSH1 0x20 SWAP1 DUP2 MSTORE PUSH1 0x40 DUP1 DUP4 KECCAK256 SWAP4 DUP9 AND DUP4 MSTORE SWAP3 SWAP1 MSTORE KECCAK256 SLOAD PUSH1 0xFF AND JUMPDEST DUP1 PUSH2 0x1937 JUMPI POP DUP4 PUSH1 0x1 PUSH1 0x1 PUSH1 0xA0 SHL SUB AND PUSH2 0x192C DUP5 PUSH2 0x696 JUMP JUMPDEST PUSH1 0x1 PUSH1 0x1 PUSH1 0xA0 SHL SUB AND EQ JUMPDEST SWAP5 SWAP4 POP POP POP POP JUMP JUMPDEST DUP3 PUSH1 0x1 PUSH1 0x1 PUSH1 0xA0 SHL SUB AND PUSH2 0x1952 DUP3 PUSH2 0xE9B JUMP JUMPDEST PUSH1 0x1 PUSH1 0x1 PUSH1 0xA0 SHL SUB AND EQ PUSH2 0x1978 JUMPI PUSH1 0x40 MLOAD PUSH3 0x461BCD PUSH1 0xE5 SHL DUP2 MSTORE PUSH1 0x4 ADD PUSH2 0x731 SWAP1 PUSH2 0x2C17 JUMP JUMPDEST PUSH1 0x1 PUSH1 0x1 PUSH1 0xA0 SHL SUB DUP3 AND PUSH2 0x19DA JUMPI PUSH1 0x40 MLOAD PUSH3 0x461BCD PUSH1 0xE5 SHL DUP2 MSTORE PUSH1 0x20 PUSH1 0x4 DUP3 ADD MSTORE PUSH1 0x24 DUP1 DUP3 ADD MSTORE PUSH32 0x4552433732313A207472616E7366657220746F20746865207A65726F20616464 PUSH1 0x44 DUP3 ADD MSTORE PUSH4 0x72657373 PUSH1 0xE0 SHL PUSH1 0x64 DUP3 ADD MSTORE PUSH1 0x84 ADD PUSH2 0x731 JUMP JUMPDEST PUSH2 0x19E7 DUP4 DUP4 DUP4 PUSH1 0x1 PUSH2 0x201F JUMP JUMPDEST DUP3 PUSH1 0x1 PUSH1 0x1 PUSH1 0xA0 SHL SUB AND PUSH2 0x19FA DUP3 PUSH2 0xE9B JUMP JUMPDEST PUSH1 0x1 PUSH1 0x1 PUSH1 0xA0 SHL SUB AND EQ PUSH2 0x1A20 JUMPI PUSH1 0x40 MLOAD PUSH3 0x461BCD PUSH1 0xE5 SHL DUP2 MSTORE PUSH1 0x4 ADD PUSH2 0x731 SWAP1 PUSH2 0x2C17 JUMP JUMPDEST PUSH1 0x0 DUP2 DUP2 MSTORE PUSH1 0x4 PUSH1 0x20 SWAP1 DUP2 MSTORE PUSH1 0x40 DUP1 DUP4 KECCAK256 DUP1 SLOAD PUSH1 0x1 PUSH1 0x1 PUSH1 0xA0 SHL SUB NOT SWAP1 DUP2 AND SWAP1 SWAP2 SSTORE PUSH1 0x1 PUSH1 0x1 PUSH1 0xA0 SHL SUB DUP8 DUP2 AND DUP1 DUP7 MSTORE PUSH1 0x3 DUP6 MSTORE DUP4 DUP7 KECCAK256 DUP1 SLOAD PUSH1 0x0 NOT ADD SWAP1 SSTORE SWAP1 DUP8 AND DUP1 DUP7 MSTORE DUP4 DUP7 KECCAK256 DUP1 SLOAD PUSH1 0x1 ADD SWAP1 SSTORE DUP7 DUP7 MSTORE PUSH1 0x2 SWAP1 SWAP5 MSTORE DUP3 DUP6 KECCAK256 DUP1 SLOAD SWAP1 SWAP3 AND DUP5 OR SWAP1 SWAP2 SSTORE SWAP1 MLOAD DUP5 SWAP4 PUSH32 0xDDF252AD1BE2C89B69C2B068FC378DAA952BA7F163C4A11628F55A4DF523B3EF SWAP2 LOG4 POP POP POP JUMP JUMPDEST PUSH1 0x0 PUSH1 0xC SLOAD PUSH1 0x3 PUSH2 0x1AC1 SWAP2 SWAP1 PUSH2 0x2C5C JUMP JUMPDEST SWAP1 POP JUMPDEST DUP5 PUSH1 0xC SLOAD PUSH2 0x1AD2 SWAP2 SWAP1 PUSH2 0x2BB3 JUMP JUMPDEST PUSH2 0x1ADD SWAP1 PUSH1 0x3 PUSH2 0x2C5C JUMP JUMPDEST DUP2 LT ISZERO PUSH2 0x1B38 JUMPI PUSH1 0x0 DUP2 DUP2 MSTORE PUSH1 0x12 PUSH1 0x20 MSTORE PUSH1 0x40 DUP2 KECCAK256 DUP4 SWAP1 SSTORE PUSH1 0x17 DUP1 SLOAD PUSH1 0x1 DUP2 ADD DUP3 SSTORE SWAP2 MSTORE PUSH32 0xC624B66CC0138B8FABC209247F72D758E1CF3343756D543BADBF24212BED8C15 ADD DUP2 SWAP1 SSTORE PUSH2 0x1B31 PUSH1 0x3 DUP3 PUSH2 0x2BB3 JUMP JUMPDEST SWAP1 POP PUSH2 0x1AC4 JUMP JUMPDEST POP PUSH1 0x0 PUSH1 0xD SLOAD PUSH1 0x3 PUSH2 0x1B4A SWAP2 SWAP1 PUSH2 0x2C5C JUMP JUMPDEST PUSH2 0x1B55 SWAP1 PUSH1 0x1 PUSH2 0x2BB3 JUMP JUMPDEST SWAP1 POP JUMPDEST DUP4 PUSH1 0xD SLOAD PUSH2 0x1B66 SWAP2 SWAP1 PUSH2 0x2BB3 JUMP JUMPDEST PUSH2 0x1B71 SWAP1 PUSH1 0x3 PUSH2 0x2C5C JUMP JUMPDEST PUSH2 0x1B7C SWAP1 PUSH1 0x1 PUSH2 0x2BB3 JUMP JUMPDEST DUP2 LT ISZERO PUSH2 0x1BD7 JUMPI PUSH1 0x0 DUP2 DUP2 MSTORE PUSH1 0x12 PUSH1 0x20 MSTORE PUSH1 0x40 DUP2 KECCAK256 DUP4 SWAP1 SSTORE PUSH1 0x18 DUP1 SLOAD PUSH1 0x1 DUP2 ADD DUP3 SSTORE SWAP2 MSTORE PUSH32 0xB13D2D76D1F4B7BE834882E410B3E3A8AFAF69F83600AE24DB354391D2378D2E ADD DUP2 SWAP1 SSTORE PUSH2 0x1BD0 PUSH1 0x3 DUP3 PUSH2 0x2BB3 JUMP JUMPDEST SWAP1 POP PUSH2 0x1B58 JUMP JUMPDEST POP PUSH1 0x0 PUSH1 0xE SLOAD PUSH1 0x3 PUSH2 0x1BE9 SWAP2 SWAP1 PUSH2 0x2C5C JUMP JUMPDEST PUSH2 0x1BF4 SWAP1 PUSH1 0x2 PUSH2 0x2BB3 JUMP JUMPDEST SWAP1 POP JUMPDEST DUP3 PUSH1 0xE SLOAD PUSH2 0x1C05 SWAP2 SWAP1 PUSH2 0x2BB3 JUMP JUMPDEST PUSH2 0x1C10 SWAP1 PUSH1 0x3 PUSH2 0x2C5C JUMP JUMPDEST PUSH2 0x1C1B SWAP1 PUSH1 0x2 PUSH2 0x2BB3 JUMP JUMPDEST DUP2 LT ISZERO PUSH2 0x1C76 JUMPI PUSH1 0x0 DUP2 DUP2 MSTORE PUSH1 0x12 PUSH1 0x20 MSTORE PUSH1 0x40 DUP2 KECCAK256 DUP4 SWAP1 SSTORE PUSH1 0x19 DUP1 SLOAD PUSH1 0x1 DUP2 ADD DUP3 SSTORE SWAP2 MSTORE PUSH32 0x944998273E477B495144FB8794C914197F3CCB46BE2900F4698FD0EF743C9695 ADD DUP2 SWAP1 SSTORE PUSH2 0x1C6F PUSH1 0x3 DUP3 PUSH2 0x2BB3 JUMP JUMPDEST SWAP1 POP PUSH2 0x1BF7 JUMP JUMPDEST POP DUP4 PUSH1 0xC PUSH1 0x0 DUP3 DUP3 SLOAD PUSH2 0x1C89 SWAP2 SWAP1 PUSH2 0x2BB3 JUMP JUMPDEST SWAP3 POP POP DUP2 SWAP1 SSTORE POP DUP3 PUSH1 0xD PUSH1 0x0 DUP3 DUP3 SLOAD PUSH2 0x1CA2 SWAP2 SWAP1 PUSH2 0x2BB3 JUMP JUMPDEST SWAP3 POP POP DUP2 SWAP1 SSTORE POP DUP2 PUSH1 0xE PUSH1 0x0 DUP3 DUP3 SLOAD PUSH2 0x1CBB SWAP2 SWAP1 PUSH2 0x2BB3 JUMP JUMPDEST SWAP1 SWAP2 SSTORE POP POP POP POP POP POP JUMP JUMPDEST PUSH1 0x0 PUSH2 0x1CD1 DUP3 PUSH2 0xE9B JUMP JUMPDEST SWAP1 POP PUSH2 0x1CE1 DUP2 PUSH1 0x0 DUP5 PUSH1 0x1 PUSH2 0x201F JUMP JUMPDEST PUSH2 0x1CEA DUP3 PUSH2 0xE9B JUMP JUMPDEST PUSH1 0x0 DUP4 DUP2 MSTORE PUSH1 0x4 PUSH1 0x20 SWAP1 DUP2 MSTORE PUSH1 0x40 DUP1 DUP4 KECCAK256 DUP1 SLOAD PUSH1 0x1 PUSH1 0x1 PUSH1 0xA0 SHL SUB NOT SWAP1 DUP2 AND SWAP1 SWAP2 SSTORE PUSH1 0x1 PUSH1 0x1 PUSH1 0xA0 SHL SUB DUP6 AND DUP1 DUP6 MSTORE PUSH1 0x3 DUP5 MSTORE DUP3 DUP6 KECCAK256 DUP1 SLOAD PUSH1 0x0 NOT ADD SWAP1 SSTORE DUP8 DUP6 MSTORE PUSH1 0x2 SWAP1 SWAP4 MSTORE DUP2 DUP5 KECCAK256 DUP1 SLOAD SWAP1 SWAP2 AND SWAP1 SSTORE MLOAD SWAP3 SWAP4 POP DUP5 SWAP3 PUSH32 0xDDF252AD1BE2C89B69C2B068FC378DAA952BA7F163C4A11628F55A4DF523B3EF SWAP1 DUP4 SWAP1 LOG4 POP POP JUMP JUMPDEST PUSH2 0x1D71 PUSH2 0x1349 JUMP JUMPDEST PUSH1 0xA DUP1 SLOAD PUSH1 0xFF PUSH1 0xA0 SHL NOT AND PUSH1 0x1 PUSH1 0xA0 SHL OR SWAP1 SSTORE PUSH32 0x62E78CEA01BEE320CD4E420270B5EA74000D11B0C9F74754EBDBFC544B05A258 PUSH2 0x1DAC CALLER SWAP1 JUMP JUMPDEST PUSH1 0x40 MLOAD PUSH1 0x1 PUSH1 0x1 PUSH1 0xA0 SHL SUB SWAP1 SWAP2 AND DUP2 MSTORE PUSH1 0x20 ADD PUSH1 0x40 MLOAD DUP1 SWAP2 SUB SWAP1 LOG1 JUMP JUMPDEST PUSH1 0xA DUP1 SLOAD PUSH1 0x1 PUSH1 0x1 PUSH1 0xA0 SHL SUB DUP4 DUP2 AND PUSH1 0x1 PUSH1 0x1 PUSH1 0xA0 SHL SUB NOT DUP4 AND DUP2 OR SWAP1 SWAP4 SSTORE PUSH1 0x40 MLOAD SWAP2 AND SWAP2 SWAP1 DUP3 SWAP1 PUSH32 0x8BE0079C531659141344CD1FD0A4F28419497F9722A3DAAFE3B4186F6B6457E0 SWAP1 PUSH1 0x0 SWAP1 LOG3 POP POP JUMP JUMPDEST DUP2 PUSH1 0x1 PUSH1 0x1 PUSH1 0xA0 SHL SUB AND DUP4 PUSH1 0x1 PUSH1 0x1 PUSH1 0xA0 SHL SUB AND SUB PUSH2 0x1E7C JUMPI PUSH1 0x40 MLOAD PUSH3 0x461BCD PUSH1 0xE5 SHL DUP2 MSTORE PUSH1 0x20 PUSH1 0x4 DUP3 ADD MSTORE PUSH1 0x19 PUSH1 0x24 DUP3 ADD MSTORE PUSH32 0x4552433732313A20617070726F766520746F2063616C6C657200000000000000 PUSH1 0x44 DUP3 ADD MSTORE PUSH1 0x64 ADD PUSH2 0x731 JUMP JUMPDEST PUSH1 0x1 PUSH1 0x1 PUSH1 0xA0 SHL SUB DUP4 DUP2 AND PUSH1 0x0 DUP2 DUP2 MSTORE PUSH1 0x5 PUSH1 0x20 SWAP1 DUP2 MSTORE PUSH1 0x40 DUP1 DUP4 KECCAK256 SWAP5 DUP8 AND DUP1 DUP5 MSTORE SWAP5 DUP3 MSTORE SWAP2 DUP3 SWAP1 KECCAK256 DUP1 SLOAD PUSH1 0xFF NOT AND DUP7 ISZERO ISZERO SWAP1 DUP2 OR SWAP1 SWAP2 SSTORE SWAP2 MLOAD SWAP2 DUP3 MSTORE PUSH32 0x17307EAB39AB6107E8899845AD3D59BD9653F200F220920489CA2B5937696C31 SWAP2 ADD PUSH1 0x40 MLOAD DUP1 SWAP2 SUB SWAP1 LOG3 POP POP POP JUMP JUMPDEST PUSH2 0x1EF1 PUSH2 0x214C JUMP JUMPDEST PUSH1 0xA DUP1 SLOAD PUSH1 0xFF PUSH1 0xA0 SHL NOT AND SWAP1 SSTORE PUSH32 0x5DB9EE0A495BF2E6FF9C91A7834C1BA4FDD244A5E8AA4E537BD38AEAE4B073AA CALLER PUSH2 0x1DAC JUMP JUMPDEST PUSH2 0x1F30 DUP5 DUP5 DUP5 PUSH2 0x193F JUMP JUMPDEST PUSH2 0x1F3C DUP5 DUP5 DUP5 DUP5 PUSH2 0x219C JUMP JUMPDEST PUSH2 0xA59 JUMPI PUSH1 0x40 MLOAD PUSH3 0x461BCD PUSH1 0xE5 SHL DUP2 MSTORE PUSH1 0x4 ADD PUSH2 0x731 SWAP1 PUSH2 0x2C73 JUMP JUMPDEST PUSH1 0x0 DUP1 TIMESTAMP PUSH2 0x1F67 PUSH1 0x1 NUMBER PUSH2 0x2BA0 JUMP JUMPDEST BLOCKHASH CALLER PUSH1 0x40 MLOAD PUSH1 0x20 ADD PUSH2 0x1F9E SWAP4 SWAP3 SWAP2 SWAP1 SWAP3 DUP4 MSTORE PUSH1 0x20 DUP4 ADD SWAP2 SWAP1 SWAP2 MSTORE PUSH1 0x60 SHL PUSH12 0xFFFFFFFFFFFFFFFFFFFFFFFF NOT AND PUSH1 0x40 DUP3 ADD MSTORE PUSH1 0x54 ADD SWAP1 JUMP JUMPDEST PUSH1 0x40 DUP1 MLOAD PUSH1 0x1F NOT DUP2 DUP5 SUB ADD DUP2 MSTORE SWAP2 SWAP1 MSTORE DUP1 MLOAD PUSH1 0x20 SWAP1 SWAP2 ADD KECCAK256 SWAP1 POP PUSH2 0x11AC DUP4 DUP3 PUSH2 0x2BDF JUMP JUMPDEST PUSH1 0x0 DUP1 PUSH2 0x1FCF PUSH1 0x64 PUSH2 0x1F58 JUMP JUMPDEST SWAP1 POP PUSH1 0x5 DUP2 LT ISZERO PUSH2 0x1FE2 JUMPI PUSH1 0x3 SWAP2 POP POP SWAP1 JUMP JUMPDEST PUSH2 0x1FEE PUSH1 0x14 PUSH1 0x5 PUSH2 0x2BB3 JUMP JUMPDEST DUP2 LT ISZERO PUSH2 0x1FFD JUMPI PUSH1 0x2 SWAP2 POP POP SWAP1 JUMP JUMPDEST PUSH1 0x1 SWAP2 POP POP SWAP1 JUMP JUMPDEST PUSH2 0x913 DUP3 DUP3 PUSH1 0x40 MLOAD DUP1 PUSH1 0x20 ADD PUSH1 0x40 MSTORE DUP1 PUSH1 0x0 DUP2 MSTORE POP PUSH2 0x229D JUMP JUMPDEST PUSH1 0x1 DUP2 GT ISZERO PUSH2 0x208E JUMPI PUSH1 0x40 MLOAD PUSH3 0x461BCD PUSH1 0xE5 SHL DUP2 MSTORE PUSH1 0x20 PUSH1 0x4 DUP3 ADD MSTORE PUSH1 0x35 PUSH1 0x24 DUP3 ADD MSTORE PUSH32 0x455243373231456E756D657261626C653A20636F6E7365637574697665207472 PUSH1 0x44 DUP3 ADD MSTORE PUSH21 0x185B9CD9995C9CC81B9BDD081CDD5C1C1BDC9D1959 PUSH1 0x5A SHL PUSH1 0x64 DUP3 ADD MSTORE PUSH1 0x84 ADD PUSH2 0x731 JUMP JUMPDEST DUP2 PUSH1 0x1 PUSH1 0x1 PUSH1 0xA0 SHL SUB DUP6 AND PUSH2 0x20EA JUMPI PUSH2 0x20E5 DUP2 PUSH1 0x8 DUP1 SLOAD PUSH1 0x0 DUP4 DUP2 MSTORE PUSH1 0x9 PUSH1 0x20 MSTORE PUSH1 0x40 DUP2 KECCAK256 DUP3 SWAP1 SSTORE PUSH1 0x1 DUP3 ADD DUP4 SSTORE SWAP2 SWAP1 SWAP2 MSTORE PUSH32 0xF3F7A9FE364FAAB93B216DA50A3214154F22A0A2B415B23A84C8169E8B636EE3 ADD SSTORE JUMP JUMPDEST PUSH2 0x210D JUMP JUMPDEST DUP4 PUSH1 0x1 PUSH1 0x1 PUSH1 0xA0 SHL SUB AND DUP6 PUSH1 0x1 PUSH1 0x1 PUSH1 0xA0 SHL SUB AND EQ PUSH2 0x210D JUMPI PUSH2 0x210D DUP6 DUP3 PUSH2 0x22D0 JUMP JUMPDEST PUSH1 0x1 PUSH1 0x1 PUSH1 0xA0 SHL SUB DUP5 AND PUSH2 0x2129 JUMPI PUSH2 0x2124 DUP2 PUSH2 0x236D JUMP JUMPDEST PUSH2 0x946 JUMP JUMPDEST DUP5 PUSH1 0x1 PUSH1 0x1 PUSH1 0xA0 SHL SUB AND DUP5 PUSH1 0x1 PUSH1 0x1 PUSH1 0xA0 SHL SUB AND EQ PUSH2 0x946 JUMPI PUSH2 0x946 DUP5 DUP3 PUSH2 0x241C JUMP JUMPDEST PUSH1 0xA SLOAD PUSH1 0x1 PUSH1 0xA0 SHL SWAP1 DIV PUSH1 0xFF AND PUSH2 0xDDC JUMPI PUSH1 0x40 MLOAD PUSH3 0x461BCD PUSH1 0xE5 SHL DUP2 MSTORE PUSH1 0x20 PUSH1 0x4 DUP3 ADD MSTORE PUSH1 0x14 PUSH1 0x24 DUP3 ADD MSTORE PUSH20 0x14185D5CD8589B194E881B9BDD081C185D5CD959 PUSH1 0x62 SHL PUSH1 0x44 DUP3 ADD MSTORE PUSH1 0x64 ADD PUSH2 0x731 JUMP JUMPDEST PUSH1 0x0 PUSH1 0x1 PUSH1 0x1 PUSH1 0xA0 SHL SUB DUP5 AND EXTCODESIZE ISZERO PUSH2 0x2292 JUMPI PUSH1 0x40 MLOAD PUSH4 0xA85BD01 PUSH1 0xE1 SHL DUP2 MSTORE PUSH1 0x1 PUSH1 0x1 PUSH1 0xA0 SHL SUB DUP6 AND SWAP1 PUSH4 0x150B7A02 SWAP1 PUSH2 0x21E0 SWAP1 CALLER SWAP1 DUP10 SWAP1 DUP9 SWAP1 DUP9 SWAP1 PUSH1 0x4 ADD PUSH2 0x2CC5 JUMP JUMPDEST PUSH1 0x20 PUSH1 0x40 MLOAD DUP1 DUP4 SUB DUP2 PUSH1 0x0 DUP8 GAS CALL SWAP3 POP POP POP DUP1 ISZERO PUSH2 0x221B JUMPI POP PUSH1 0x40 DUP1 MLOAD PUSH1 0x1F RETURNDATASIZE SWAP1 DUP2 ADD PUSH1 0x1F NOT AND DUP3 ADD SWAP1 SWAP3 MSTORE PUSH2 0x2218 SWAP2 DUP2 ADD SWAP1 PUSH2 0x2D02 JUMP JUMPDEST PUSH1 0x1 JUMPDEST PUSH2 0x2278 JUMPI RETURNDATASIZE DUP1 DUP1 ISZERO PUSH2 0x2249 JUMPI PUSH1 0x40 MLOAD SWAP2 POP PUSH1 0x1F NOT PUSH1 0x3F RETURNDATASIZE ADD AND DUP3 ADD PUSH1 0x40 MSTORE RETURNDATASIZE DUP3 MSTORE RETURNDATASIZE PUSH1 0x0 PUSH1 0x20 DUP5 ADD RETURNDATACOPY PUSH2 0x224E JUMP JUMPDEST PUSH1 0x60 SWAP2 POP JUMPDEST POP DUP1 MLOAD PUSH1 0x0 SUB PUSH2 0x2270 JUMPI PUSH1 0x40 MLOAD PUSH3 0x461BCD PUSH1 0xE5 SHL DUP2 MSTORE PUSH1 0x4 ADD PUSH2 0x731 SWAP1 PUSH2 0x2C73 JUMP JUMPDEST DUP1 MLOAD DUP2 PUSH1 0x20 ADD REVERT JUMPDEST PUSH1 0x1 PUSH1 0x1 PUSH1 0xE0 SHL SUB NOT AND PUSH4 0xA85BD01 PUSH1 0xE1 SHL EQ SWAP1 POP PUSH2 0x1937 JUMP JUMPDEST POP PUSH1 0x1 SWAP5 SWAP4 POP POP POP POP JUMP JUMPDEST PUSH2 0x22A7 DUP4 DUP4 PUSH2 0x2460 JUMP JUMPDEST PUSH2 0x22B4 PUSH1 0x0 DUP5 DUP5 DUP5 PUSH2 0x219C JUMP JUMPDEST PUSH2 0x7D2 JUMPI PUSH1 0x40 MLOAD PUSH3 0x461BCD PUSH1 0xE5 SHL DUP2 MSTORE PUSH1 0x4 ADD PUSH2 0x731 SWAP1 PUSH2 0x2C73 JUMP JUMPDEST PUSH1 0x0 PUSH1 0x1 PUSH2 0x22DD DUP5 PUSH2 0xEFB JUMP JUMPDEST PUSH2 0x22E7 SWAP2 SWAP1 PUSH2 0x2BA0 JUMP JUMPDEST PUSH1 0x0 DUP4 DUP2 MSTORE PUSH1 0x7 PUSH1 0x20 MSTORE PUSH1 0x40 SWAP1 KECCAK256 SLOAD SWAP1 SWAP2 POP DUP1 DUP3 EQ PUSH2 0x233A JUMPI PUSH1 0x1 PUSH1 0x1 PUSH1 0xA0 SHL SUB DUP5 AND PUSH1 0x0 SWAP1 DUP2 MSTORE PUSH1 0x6 PUSH1 0x20 SWAP1 DUP2 MSTORE PUSH1 0x40 DUP1 DUP4 KECCAK256 DUP6 DUP5 MSTORE DUP3 MSTORE DUP1 DUP4 KECCAK256 SLOAD DUP5 DUP5 MSTORE DUP2 DUP5 KECCAK256 DUP2 SWAP1 SSTORE DUP4 MSTORE PUSH1 0x7 SWAP1 SWAP2 MSTORE SWAP1 KECCAK256 DUP2 SWAP1 SSTORE JUMPDEST POP PUSH1 0x0 SWAP2 DUP3 MSTORE PUSH1 0x7 PUSH1 0x20 SWAP1 DUP2 MSTORE PUSH1 0x40 DUP1 DUP5 KECCAK256 DUP5 SWAP1 SSTORE PUSH1 0x1 PUSH1 0x1 PUSH1 0xA0 SHL SUB SWAP1 SWAP5 AND DUP4 MSTORE PUSH1 0x6 DUP2 MSTORE DUP4 DUP4 KECCAK256 SWAP2 DUP4 MSTORE MSTORE SWAP1 DUP2 KECCAK256 SSTORE JUMP JUMPDEST PUSH1 0x8 SLOAD PUSH1 0x0 SWAP1 PUSH2 0x237F SWAP1 PUSH1 0x1 SWAP1 PUSH2 0x2BA0 JUMP JUMPDEST PUSH1 0x0 DUP4 DUP2 MSTORE PUSH1 0x9 PUSH1 0x20 MSTORE PUSH1 0x40 DUP2 KECCAK256 SLOAD PUSH1 0x8 DUP1 SLOAD SWAP4 SWAP5 POP SWAP1 SWAP3 DUP5 SWAP1 DUP2 LT PUSH2 0x23A7 JUMPI PUSH2 0x23A7 PUSH2 0x29C4 JUMP JUMPDEST SWAP1 PUSH1 0x0 MSTORE PUSH1 0x20 PUSH1 0x0 KECCAK256 ADD SLOAD SWAP1 POP DUP1 PUSH1 0x8 DUP4 DUP2 SLOAD DUP2 LT PUSH2 0x23C8 JUMPI PUSH2 0x23C8 PUSH2 0x29C4 JUMP JUMPDEST PUSH1 0x0 SWAP2 DUP3 MSTORE PUSH1 0x20 DUP1 DUP4 KECCAK256 SWAP1 SWAP2 ADD SWAP3 SWAP1 SWAP3 SSTORE DUP3 DUP2 MSTORE PUSH1 0x9 SWAP1 SWAP2 MSTORE PUSH1 0x40 DUP1 DUP3 KECCAK256 DUP5 SWAP1 SSTORE DUP6 DUP3 MSTORE DUP2 KECCAK256 SSTORE PUSH1 0x8 DUP1 SLOAD DUP1 PUSH2 0x2400 JUMPI PUSH2 0x2400 PUSH2 0x2C01 JUMP JUMPDEST PUSH1 0x1 SWAP1 SUB DUP2 DUP2 SWAP1 PUSH1 0x0 MSTORE PUSH1 0x20 PUSH1 0x0 KECCAK256 ADD PUSH1 0x0 SWAP1 SSTORE SWAP1 SSTORE POP POP POP POP JUMP JUMPDEST PUSH1 0x0 PUSH2 0x2427 DUP4 PUSH2 0xEFB JUMP JUMPDEST PUSH1 0x1 PUSH1 0x1 PUSH1 0xA0 SHL SUB SWAP1 SWAP4 AND PUSH1 0x0 SWAP1 DUP2 MSTORE PUSH1 0x6 PUSH1 0x20 SWAP1 DUP2 MSTORE PUSH1 0x40 DUP1 DUP4 KECCAK256 DUP7 DUP5 MSTORE DUP3 MSTORE DUP1 DUP4 KECCAK256 DUP6 SWAP1 SSTORE SWAP4 DUP3 MSTORE PUSH1 0x7 SWAP1 MSTORE SWAP2 SWAP1 SWAP2 KECCAK256 SWAP2 SWAP1 SWAP2 SSTORE POP JUMP JUMPDEST PUSH1 0x1 PUSH1 0x1 PUSH1 0xA0 SHL SUB DUP3 AND PUSH2 0x24B6 JUMPI PUSH1 0x40 MLOAD PUSH3 0x461BCD PUSH1 0xE5 SHL DUP2 MSTORE PUSH1 0x20 PUSH1 0x4 DUP3 ADD DUP2 SWAP1 MSTORE PUSH1 0x24 DUP3 ADD MSTORE PUSH32 0x4552433732313A206D696E7420746F20746865207A65726F2061646472657373 PUSH1 0x44 DUP3 ADD MSTORE PUSH1 0x64 ADD PUSH2 0x731 JUMP JUMPDEST PUSH1 0x0 DUP2 DUP2 MSTORE PUSH1 0x2 PUSH1 0x20 MSTORE PUSH1 0x40 SWAP1 KECCAK256 SLOAD PUSH1 0x1 PUSH1 0x1 PUSH1 0xA0 SHL SUB AND ISZERO PUSH2 0x251B JUMPI PUSH1 0x40 MLOAD PUSH3 0x461BCD PUSH1 0xE5 SHL DUP2 MSTORE PUSH1 0x20 PUSH1 0x4 DUP3 ADD MSTORE PUSH1 0x1C PUSH1 0x24 DUP3 ADD MSTORE PUSH32 0x4552433732313A20746F6B656E20616C7265616479206D696E74656400000000 PUSH1 0x44 DUP3 ADD MSTORE PUSH1 0x64 ADD PUSH2 0x731 JUMP JUMPDEST PUSH2 0x2529 PUSH1 0x0 DUP4 DUP4 PUSH1 0x1 PUSH2 0x201F JUMP JUMPDEST PUSH1 0x0 DUP2 DUP2 MSTORE PUSH1 0x2 PUSH1 0x20 MSTORE PUSH1 0x40 SWAP1 KECCAK256 SLOAD PUSH1 0x1 PUSH1 0x1 PUSH1 0xA0 SHL SUB AND ISZERO PUSH2 0x258E JUMPI PUSH1 0x40 MLOAD PUSH3 0x461BCD PUSH1 0xE5 SHL DUP2 MSTORE PUSH1 0x20 PUSH1 0x4 DUP3 ADD MSTORE PUSH1 0x1C PUSH1 0x24 DUP3 ADD MSTORE PUSH32 0x4552433732313A20746F6B656E20616C7265616479206D696E74656400000000 PUSH1 0x44 DUP3 ADD MSTORE PUSH1 0x64 ADD PUSH2 0x731 JUMP JUMPDEST PUSH1 0x1 PUSH1 0x1 PUSH1 0xA0 SHL SUB DUP3 AND PUSH1 0x0 DUP2 DUP2 MSTORE PUSH1 0x3 PUSH1 0x20 SWAP1 DUP2 MSTORE PUSH1 0x40 DUP1 DUP4 KECCAK256 DUP1 SLOAD PUSH1 0x1 ADD SWAP1 SSTORE DUP5 DUP4 MSTORE PUSH1 0x2 SWAP1 SWAP2 MSTORE DUP1 DUP3 KECCAK256 DUP1 SLOAD PUSH1 0x1 PUSH1 0x1 PUSH1 0xA0 SHL SUB NOT AND DUP5 OR SWAP1 SSTORE MLOAD DUP4 SWAP3 SWAP2 SWAP1 PUSH32 0xDDF252AD1BE2C89B69C2B068FC378DAA952BA7F163C4A11628F55A4DF523B3EF SWAP1 DUP3 SWAP1 LOG4 POP POP JUMP JUMPDEST PUSH1 0x1 PUSH1 0x1 PUSH1 0xE0 SHL SUB NOT DUP2 AND DUP2 EQ PUSH2 0x1229 JUMPI PUSH1 0x0 DUP1 REVERT JUMPDEST PUSH1 0x0 PUSH1 0x20 DUP3 DUP5 SUB SLT ISZERO PUSH2 0x2621 JUMPI PUSH1 0x0 DUP1 REVERT JUMPDEST DUP2 CALLDATALOAD PUSH2 0x11AC DUP2 PUSH2 0x25F9 JUMP JUMPDEST PUSH1 0x0 DUP2 MLOAD DUP1 DUP5 MSTORE PUSH1 0x0 JUMPDEST DUP2 DUP2 LT ISZERO PUSH2 0x2652 JUMPI PUSH1 0x20 DUP2 DUP6 ADD DUP2 ADD MLOAD DUP7 DUP4 ADD DUP3 ADD MSTORE ADD PUSH2 0x2636 JUMP JUMPDEST POP PUSH1 0x0 PUSH1 0x20 DUP3 DUP7 ADD ADD MSTORE PUSH1 0x20 PUSH1 0x1F NOT PUSH1 0x1F DUP4 ADD AND DUP6 ADD ADD SWAP2 POP POP SWAP3 SWAP2 POP POP JUMP JUMPDEST PUSH1 0x20 DUP2 MSTORE PUSH1 0x0 PUSH2 0x11AC PUSH1 0x20 DUP4 ADD DUP5 PUSH2 0x262C JUMP JUMPDEST PUSH1 0x0 PUSH1 0x20 DUP3 DUP5 SUB SLT ISZERO PUSH2 0x2697 JUMPI PUSH1 0x0 DUP1 REVERT JUMPDEST POP CALLDATALOAD SWAP2 SWAP1 POP JUMP JUMPDEST DUP1 CALLDATALOAD PUSH1 0x1 PUSH1 0x1 PUSH1 0xA0 SHL SUB DUP2 AND DUP2 EQ PUSH2 0x26B5 JUMPI PUSH1 0x0 DUP1 REVERT JUMPDEST SWAP2 SWAP1 POP JUMP JUMPDEST PUSH1 0x0 DUP1 PUSH1 0x40 DUP4 DUP6 SUB SLT ISZERO PUSH2 0x26CD JUMPI PUSH1 0x0 DUP1 REVERT JUMPDEST PUSH2 0x26D6 DUP4 PUSH2 0x269E JUMP JUMPDEST SWAP5 PUSH1 0x20 SWAP4 SWAP1 SWAP4 ADD CALLDATALOAD SWAP4 POP POP POP JUMP JUMPDEST DUP1 CALLDATALOAD PUSH1 0xFF DUP2 AND DUP2 EQ PUSH2 0x26B5 JUMPI PUSH1 0x0 DUP1 REVERT JUMPDEST PUSH1 0x0 PUSH1 0x20 DUP3 DUP5 SUB SLT ISZERO PUSH2 0x2707 JUMPI PUSH1 0x0 DUP1 REVERT JUMPDEST PUSH2 0x11AC DUP3 PUSH2 0x26E4 JUMP JUMPDEST PUSH1 0x0 DUP1 PUSH1 0x0 DUP1 PUSH1 0x60 DUP6 DUP8 SUB SLT ISZERO PUSH2 0x2726 JUMPI PUSH1 0x0 DUP1 REVERT JUMPDEST DUP5 CALLDATALOAD SWAP4 POP PUSH2 0x2736 PUSH1 0x20 DUP7 ADD PUSH2 0x26E4 JUMP JUMPDEST SWAP3 POP PUSH1 0x40 DUP6 ADD CALLDATALOAD PUSH8 0xFFFFFFFFFFFFFFFF DUP1 DUP3 GT ISZERO PUSH2 0x2753 JUMPI PUSH1 0x0 DUP1 REVERT JUMPDEST DUP2 DUP8 ADD SWAP2 POP DUP8 PUSH1 0x1F DUP4 ADD SLT PUSH2 0x2767 JUMPI PUSH1 0x0 DUP1 REVERT JUMPDEST DUP2 CALLDATALOAD DUP2 DUP2 GT ISZERO PUSH2 0x2776 JUMPI PUSH1 0x0 DUP1 REVERT JUMPDEST DUP9 PUSH1 0x20 DUP3 DUP6 ADD ADD GT ISZERO PUSH2 0x2788 JUMPI PUSH1 0x0 DUP1 REVERT JUMPDEST SWAP6 SWAP9 SWAP5 SWAP8 POP POP PUSH1 0x20 ADD SWAP5 POP POP POP JUMP JUMPDEST PUSH1 0x0 DUP1 PUSH1 0x0 PUSH1 0x60 DUP5 DUP7 SUB SLT ISZERO PUSH2 0x27AC JUMPI PUSH1 0x0 DUP1 REVERT JUMPDEST PUSH2 0x27B5 DUP5 PUSH2 0x269E JUMP JUMPDEST SWAP3 POP PUSH2 0x27C3 PUSH1 0x20 DUP6 ADD PUSH2 0x269E JUMP JUMPDEST SWAP2 POP PUSH1 0x40 DUP5 ADD CALLDATALOAD SWAP1 POP SWAP3 POP SWAP3 POP SWAP3 JUMP JUMPDEST PUSH1 0x0 DUP1 PUSH1 0x0 DUP1 PUSH1 0x80 DUP6 DUP8 SUB SLT ISZERO PUSH2 0x27E9 JUMPI PUSH1 0x0 DUP1 REVERT JUMPDEST POP POP DUP3 CALLDATALOAD SWAP5 PUSH1 0x20 DUP5 ADD CALLDATALOAD SWAP5 POP PUSH1 0x40 DUP5 ADD CALLDATALOAD SWAP4 PUSH1 0x60 ADD CALLDATALOAD SWAP3 POP SWAP1 POP JUMP JUMPDEST PUSH1 0x0 PUSH1 0x20 DUP3 DUP5 SUB SLT ISZERO PUSH2 0x2817 JUMPI PUSH1 0x0 DUP1 REVERT JUMPDEST PUSH2 0x11AC DUP3 PUSH2 0x269E JUMP JUMPDEST DUP1 ISZERO ISZERO DUP2 EQ PUSH2 0x1229 JUMPI PUSH1 0x0 DUP1 REVERT JUMPDEST PUSH1 0x0 DUP1 PUSH1 0x40 DUP4 DUP6 SUB SLT ISZERO PUSH2 0x2841 JUMPI PUSH1 0x0 DUP1 REVERT JUMPDEST PUSH2 0x284A DUP4 PUSH2 0x269E JUMP JUMPDEST SWAP2 POP PUSH1 0x20 DUP4 ADD CALLDATALOAD PUSH2 0x285A DUP2 PUSH2 0x2820 JUMP JUMPDEST DUP1 SWAP2 POP POP SWAP3 POP SWAP3 SWAP1 POP JUMP JUMPDEST PUSH4 0x4E487B71 PUSH1 0xE0 SHL PUSH1 0x0 MSTORE PUSH1 0x41 PUSH1 0x4 MSTORE PUSH1 0x24 PUSH1 0x0 REVERT JUMPDEST PUSH1 0x0 DUP1 PUSH1 0x0 DUP1 PUSH1 0x80 DUP6 DUP8 SUB SLT ISZERO PUSH2 0x2891 JUMPI PUSH1 0x0 DUP1 REVERT JUMPDEST PUSH2 0x289A DUP6 PUSH2 0x269E JUMP JUMPDEST SWAP4 POP PUSH2 0x28A8 PUSH1 0x20 DUP7 ADD PUSH2 0x269E JUMP JUMPDEST SWAP3 POP PUSH1 0x40 DUP6 ADD CALLDATALOAD SWAP2 POP PUSH1 0x60 DUP6 ADD CALLDATALOAD PUSH8 0xFFFFFFFFFFFFFFFF DUP1 DUP3 GT ISZERO PUSH2 0x28CC JUMPI PUSH1 0x0 DUP1 REVERT JUMPDEST DUP2 DUP8 ADD SWAP2 POP DUP8 PUSH1 0x1F DUP4 ADD SLT PUSH2 0x28E0 JUMPI PUSH1 0x0 DUP1 REVERT JUMPDEST DUP2 CALLDATALOAD DUP2 DUP2 GT ISZERO PUSH2 0x28F2 JUMPI PUSH2 0x28F2 PUSH2 0x2865 JUMP JUMPDEST PUSH1 0x40 MLOAD PUSH1 0x1F DUP3 ADD PUSH1 0x1F NOT SWAP1 DUP2 AND PUSH1 0x3F ADD AND DUP2 ADD SWAP1 DUP4 DUP3 GT DUP2 DUP4 LT OR ISZERO PUSH2 0x291A JUMPI PUSH2 0x291A PUSH2 0x2865 JUMP JUMPDEST DUP2 PUSH1 0x40 MSTORE DUP3 DUP2 MSTORE DUP11 PUSH1 0x20 DUP5 DUP8 ADD ADD GT ISZERO PUSH2 0x2933 JUMPI PUSH1 0x0 DUP1 REVERT JUMPDEST DUP3 PUSH1 0x20 DUP7 ADD PUSH1 0x20 DUP4 ADD CALLDATACOPY PUSH1 0x0 PUSH1 0x20 DUP5 DUP4 ADD ADD MSTORE DUP1 SWAP6 POP POP POP POP POP POP SWAP3 SWAP6 SWAP2 SWAP5 POP SWAP3 POP JUMP JUMPDEST PUSH1 0x0 DUP1 PUSH1 0x40 DUP4 DUP6 SUB SLT ISZERO PUSH2 0x296A JUMPI PUSH1 0x0 DUP1 REVERT JUMPDEST PUSH2 0x2973 DUP4 PUSH2 0x269E JUMP JUMPDEST SWAP2 POP PUSH2 0x2981 PUSH1 0x20 DUP5 ADD PUSH2 0x269E JUMP JUMPDEST SWAP1 POP SWAP3 POP SWAP3 SWAP1 POP JUMP JUMPDEST PUSH1 0x1 DUP2 DUP2 SHR SWAP1 DUP3 AND DUP1 PUSH2 0x299E JUMPI PUSH1 0x7F DUP3 AND SWAP2 POP JUMPDEST PUSH1 0x20 DUP3 LT DUP2 SUB PUSH2 0x29BE JUMPI PUSH4 0x4E487B71 PUSH1 0xE0 SHL PUSH1 0x0 MSTORE PUSH1 0x22 PUSH1 0x4 MSTORE PUSH1 0x24 PUSH1 0x0 REVERT JUMPDEST POP SWAP2 SWAP1 POP JUMP JUMPDEST PUSH4 0x4E487B71 PUSH1 0xE0 SHL PUSH1 0x0 MSTORE PUSH1 0x32 PUSH1 0x4 MSTORE PUSH1 0x24 PUSH1 0x0 REVERT JUMPDEST PUSH4 0x4E487B71 PUSH1 0xE0 SHL PUSH1 0x0 MSTORE PUSH1 0x11 PUSH1 0x4 MSTORE PUSH1 0x24 PUSH1 0x0 REVERT JUMPDEST PUSH1 0x0 PUSH1 0xFF DUP3 AND PUSH1 0xFF DUP2 SUB PUSH2 0x2A06 JUMPI PUSH2 0x2A06 PUSH2 0x29DA JUMP JUMPDEST PUSH1 0x1 ADD SWAP3 SWAP2 POP POP JUMP JUMPDEST PUSH1 0x0 PUSH1 0x20 DUP3 DUP5 SUB SLT ISZERO PUSH2 0x2A21 JUMPI PUSH1 0x0 DUP1 REVERT JUMPDEST DUP2 MLOAD PUSH2 0x11AC DUP2 PUSH2 0x2820 JUMP JUMPDEST PUSH1 0x1F DUP3 GT ISZERO PUSH2 0x7D2 JUMPI PUSH1 0x0 DUP2 DUP2 MSTORE PUSH1 0x20 DUP2 KECCAK256 PUSH1 0x1F DUP6 ADD PUSH1 0x5 SHR DUP2 ADD PUSH1 0x20 DUP7 LT ISZERO PUSH2 0x2A53 JUMPI POP DUP1 JUMPDEST PUSH1 0x1F DUP6 ADD PUSH1 0x5 SHR DUP3 ADD SWAP2 POP JUMPDEST DUP2 DUP2 LT ISZERO PUSH2 0x2A72 JUMPI DUP3 DUP2 SSTORE PUSH1 0x1 ADD PUSH2 0x2A5F JUMP JUMPDEST POP POP POP POP POP POP JUMP JUMPDEST PUSH8 0xFFFFFFFFFFFFFFFF DUP4 GT ISZERO PUSH2 0x2A92 JUMPI PUSH2 0x2A92 PUSH2 0x2865 JUMP JUMPDEST PUSH2 0x2AA6 DUP4 PUSH2 0x2AA0 DUP4 SLOAD PUSH2 0x298A JUMP JUMPDEST DUP4 PUSH2 0x2A2C JUMP JUMPDEST PUSH1 0x0 PUSH1 0x1F DUP5 GT PUSH1 0x1 DUP2 EQ PUSH2 0x2ADA JUMPI PUSH1 0x0 DUP6 ISZERO PUSH2 0x2AC2 JUMPI POP DUP4 DUP3 ADD CALLDATALOAD JUMPDEST PUSH1 0x0 NOT PUSH1 0x3 DUP8 SWAP1 SHL SHR NOT AND PUSH1 0x1 DUP7 SWAP1 SHL OR DUP4 SSTORE PUSH2 0x946 JUMP JUMPDEST PUSH1 0x0 DUP4 DUP2 MSTORE PUSH1 0x20 SWAP1 KECCAK256 PUSH1 0x1F NOT DUP7 AND SWAP1 DUP4 JUMPDEST DUP3 DUP2 LT ISZERO PUSH2 0x2B0B JUMPI DUP7 DUP6 ADD CALLDATALOAD DUP3 SSTORE PUSH1 0x20 SWAP5 DUP6 ADD SWAP5 PUSH1 0x1 SWAP1 SWAP3 ADD SWAP2 ADD PUSH2 0x2AEB JUMP JUMPDEST POP DUP7 DUP3 LT ISZERO PUSH2 0x2B28 JUMPI PUSH1 0x0 NOT PUSH1 0xF8 DUP9 PUSH1 0x3 SHL AND SHR NOT DUP5 DUP8 ADD CALLDATALOAD AND DUP2 SSTORE JUMPDEST POP POP PUSH1 0x1 DUP6 PUSH1 0x1 SHL ADD DUP4 SSTORE POP POP POP POP POP JUMP JUMPDEST PUSH1 0x20 DUP1 DUP3 MSTORE PUSH1 0x2D SWAP1 DUP3 ADD MSTORE PUSH32 0x4552433732313A2063616C6C6572206973206E6F7420746F6B656E206F776E65 PUSH1 0x40 DUP3 ADD MSTORE PUSH13 0x1C881BDC88185C1C1C9BDD9959 PUSH1 0x9A SHL PUSH1 0x60 DUP3 ADD MSTORE PUSH1 0x80 ADD SWAP1 JUMP JUMPDEST PUSH1 0x0 PUSH1 0x20 DUP3 DUP5 SUB SLT ISZERO PUSH2 0x2B99 JUMPI PUSH1 0x0 DUP1 REVERT JUMPDEST POP MLOAD SWAP2 SWAP1 POP JUMP JUMPDEST DUP2 DUP2 SUB DUP2 DUP2 GT ISZERO PUSH2 0x5FE JUMPI PUSH2 0x5FE PUSH2 0x29DA JUMP JUMPDEST DUP1 DUP3 ADD DUP1 DUP3 GT ISZERO PUSH2 0x5FE JUMPI PUSH2 0x5FE PUSH2 0x29DA JUMP JUMPDEST PUSH1 0x0 PUSH1 0x1 DUP3 ADD PUSH2 0x2BD8 JUMPI PUSH2 0x2BD8 PUSH2 0x29DA JUMP JUMPDEST POP PUSH1 0x1 ADD SWAP1 JUMP JUMPDEST PUSH1 0x0 DUP3 PUSH2 0x2BFC JUMPI PUSH4 0x4E487B71 PUSH1 0xE0 SHL PUSH1 0x0 MSTORE PUSH1 0x12 PUSH1 0x4 MSTORE PUSH1 0x24 PUSH1 0x0 REVERT JUMPDEST POP MOD SWAP1 JUMP JUMPDEST PUSH4 0x4E487B71 PUSH1 0xE0 SHL PUSH1 0x0 MSTORE PUSH1 0x31 PUSH1 0x4 MSTORE PUSH1 0x24 PUSH1 0x0 REVERT JUMPDEST PUSH1 0x20 DUP1 DUP3 MSTORE PUSH1 0x25 SWAP1 DUP3 ADD MSTORE PUSH32 0x4552433732313A207472616E736665722066726F6D20696E636F727265637420 PUSH1 0x40 DUP3 ADD MSTORE PUSH5 0x37BBB732B9 PUSH1 0xD9 SHL PUSH1 0x60 DUP3 ADD MSTORE PUSH1 0x80 ADD SWAP1 JUMP JUMPDEST DUP1 DUP3 MUL DUP2 ISZERO DUP3 DUP3 DIV DUP5 EQ OR PUSH2 0x5FE JUMPI PUSH2 0x5FE PUSH2 0x29DA JUMP JUMPDEST PUSH1 0x20 DUP1 DUP3 MSTORE PUSH1 0x32 SWAP1 DUP3 ADD MSTORE PUSH32 0x4552433732313A207472616E7366657220746F206E6F6E204552433732315265 PUSH1 0x40 DUP3 ADD MSTORE PUSH18 0x31B2B4BB32B91034B6B83632B6B2B73A32B9 PUSH1 0x71 SHL PUSH1 0x60 DUP3 ADD MSTORE PUSH1 0x80 ADD SWAP1 JUMP JUMPDEST PUSH1 0x1 PUSH1 0x1 PUSH1 0xA0 SHL SUB DUP6 DUP2 AND DUP3 MSTORE DUP5 AND PUSH1 0x20 DUP3 ADD MSTORE PUSH1 0x40 DUP2 ADD DUP4 SWAP1 MSTORE PUSH1 0x80 PUSH1 0x60 DUP3 ADD DUP2 SWAP1 MSTORE PUSH1 0x0 SWAP1 PUSH2 0x2CF8 SWAP1 DUP4 ADD DUP5 PUSH2 0x262C JUMP JUMPDEST SWAP7 SWAP6 POP POP POP POP POP POP JUMP JUMPDEST PUSH1 0x0 PUSH1 0x20 DUP3 DUP5 SUB SLT ISZERO PUSH2 0x2D14 JUMPI PUSH1 0x0 DUP1 REVERT JUMPDEST DUP2 MLOAD PUSH2 0x11AC DUP2 PUSH2 0x25F9 JUMP INVALID LOG2 PUSH5 0x6970667358 0x22 SLT KECCAK256 PUSH3 0xB3CE10 DIFFICULTY 0xE7 0xC7 DUP2 DUP8 SWAP9 0x2A 0xC7 DUP1 0xCC BASEFEE MLOAD DUP8 0xF6 0xBD EXTCODECOPY CALL 0xE9 SUB LOG3 EXTCODESIZE SLT DUP2 0x2F PUSH28 0xCA1C2E64736F6C634300081300330000000000000000000000000000 ",
  "sha1": "f5c293fb41cc75da9a511b0f193b18af07deadb6",
  "source": "// SPDX-License-Identifier: MIT\npragma solidity ^0.8.0;\n\nimport \"@openzeppelin/contracts/token/ERC721/extensions/ERC721Enumerable.sol\";\nimport \"@openzeppelin/contracts/token/ERC20/IERC20.sol\";\nimport \"@openzeppelin/contracts/access/Ownable.sol\";\nimport \"@openzeppelin/contracts/utils/Counters.sol\";\nimport \"@openzeppelin/contracts/security/Pausable.sol\";\n\ncontract CryptoBeastsNFT is ERC721Enumerable, Ownable, Pausable {\n    using Counters for Counters.Counter;\n\n    IERC20 public paymentToken;\n\n    uint256 public constant BOOSTER_PACK_COST = 50 * 10 ** 18;\n    uint256 public constant BURN_REWARD = 7 * 10 ** 18;\n\n    // Suministro del grupo inicial\n    uint256 private constant MAX_SUPPLY = 100;\n    uint256 private constant CANTIDAD_CRIATURAS_INICIALES = 21;\n    uint256 private constant CANTIDAD_HABILIDADES_INICIALES = 11;\n    uint256 private constant CANTIDAD_OBJETOS_INICIALES = 11;\n\n    // Probabilidades:\n    uint256 public constant LEGENDARY_PROBABILITY = 5;\n    uint256 public constant RARE_PROBABILITY = 20;\n    // Probabilidad de comÃºn = 100 - LEGENDARY_PROBABILITY - RARE_PROBABILITY\n\n    // Variables de estado para llevar la cuenta de cuÃ¡ntas cartas de cada tipo se han creado\n    uint256 public totalCriaturas;\n    uint256 public totalHabilidades;\n    uint256 public totalObjetos;\n\n    Counters.Counter private _tokenIdTracker;\n    mapping(uint256 => mapping(uint8 => string)) private _cardURIs;\n\n    struct Card {\n        // cardType: 0: Criatura, 1: Habilidad, 2: Objeto, es el mÃ³dulo 3 del cardId\n        uint256 cardId;\n        // string imageURI;\n        uint8 rarity;\n    }\n\n    // Mapping desde token ID a Card\n    mapping(uint256 => Card) public cards;\n\n    // Cantidad de cartas disponibles para cada cardId\n    mapping(uint256 => uint256) public cardStock;\n\n    // Limitar la cantidad de cartas que se pueden quemar por dÃ­a\n    uint256 public burnLimit = 10; // LÃ­mite de cartas quemadas por usuario en un perÃ­odo de tiempo\n    uint256 public burnTimeFrame = 86400; // PerÃ­odo de tiempo en segundos (86400 segundos = 24 horas)\n\n    mapping(address => uint256) private _burnedCards;\n    mapping(address => uint256) private _lastBurnTime;\n\n    // Array que lleva la lista de cartas disponibles por tipo\n    uint256[] public criaturasDisponibles;\n    uint256[] public habilidadesDisponibles;\n    uint256[] public objetosDisponibles;\n\n    // Constructor\n    constructor(address _paymentToken) ERC721(\"CryptoBeastsNFT\", \"CBNFT\") {\n        paymentToken = IERC20(_paymentToken);\n\n        totalCriaturas = 0;\n        totalHabilidades = 0;\n        totalObjetos = 0;\n\n        // Agrega el set inicial de cartas\n        _agregarSetCartas(\n            CANTIDAD_CRIATURAS_INICIALES,\n            CANTIDAD_HABILIDADES_INICIALES,\n            CANTIDAD_OBJETOS_INICIALES,\n            MAX_SUPPLY\n        );\n    }\n\n    function _getRandomNumber(\n        uint256 upperBound\n    ) private view returns (uint256) {\n        bytes32 randomHash = keccak256(\n            abi.encodePacked(\n                block.timestamp,\n                blockhash(block.number - 1),\n                msg.sender\n            )\n        );\n        return uint256(randomHash) % upperBound;\n    }\n\n    function _getRandomRarity() private view returns (uint8) {\n        uint256 random = _getRandomNumber(100);\n        if (random < LEGENDARY_PROBABILITY) {\n            return 3; // Legendaria\n        } else if (random < LEGENDARY_PROBABILITY + RARE_PROBABILITY) {\n            return 2; // Rara\n        } else {\n            // 75% de probabilidad\n            return 1; // ComÃºn\n        }\n    }\n\n    function mint(address to, uint256 _cardId) private {\n        require(_tokenIdTracker.current() < MAX_SUPPLY, \"No cards left\");\n        require(cardStock[_cardId] > 0, \"No stock left for this card\");\n\n        uint8 randomRarity = _getRandomRarity();\n\n        _tokenIdTracker.increment();\n        uint256 tokenId = _tokenIdTracker.current();\n\n        cards[tokenId] = Card(_cardId, randomRarity);\n        cardStock[_cardId] -= 1;\n\n        if (cardStock[_cardId] == 0) {\n            // Eliminar _cardId de la lista de disponibles\n            if (_cardId % 3 == 0) {\n                // Criatura\n                for (uint256 i = 0; i < criaturasDisponibles.length; i++) {\n                    if (criaturasDisponibles[i] == _cardId) {\n                        criaturasDisponibles[i] = criaturasDisponibles[\n                            criaturasDisponibles.length - 1\n                        ];\n                        criaturasDisponibles.pop();\n                        break;\n                    }\n                }\n            } else if (_cardId % 3 == 1) {\n                // Habilidad\n                for (uint256 i = 0; i < habilidadesDisponibles.length; i++) {\n                    if (habilidadesDisponibles[i] == _cardId) {\n                        habilidadesDisponibles[i] = habilidadesDisponibles[\n                            habilidadesDisponibles.length - 1\n                        ];\n                        habilidadesDisponibles.pop();\n                        break;\n                    }\n                }\n            } else {\n                // Objeto\n                for (uint256 i = 0; i < objetosDisponibles.length; i++) {\n                    if (objetosDisponibles[i] == _cardId) {\n                        objetosDisponibles[i] = objetosDisponibles[\n                            objetosDisponibles.length - 1\n                        ];\n                        objetosDisponibles.pop();\n                        break;\n                    }\n                }\n            }\n        }\n\n        _safeMint(to, tokenId);\n    }\n\n    // FunciÃ³n para agregar nuevos sets de cartas\n    function _agregarSetCartas(\n        uint256 cantidadCriaturas,\n        uint256 cantidadHabilidades,\n        uint256 cantidadObjetos,\n        uint256 stockInicial\n    ) private {\n        // AÃ±adir criaturas al cardStock\n        for (\n            uint256 i = totalCriaturas * 3;\n            i < (totalCriaturas + cantidadCriaturas) * 3;\n            i += 3\n        ) {\n            cardStock[i] = stockInicial;\n            criaturasDisponibles.push(i);\n        }\n\n        // AÃ±adir habilidades al cardStock\n        for (\n            uint256 i = totalHabilidades * 3 + 1;\n            i < (totalHabilidades + cantidadHabilidades) * 3 + 1;\n            i += 3\n        ) {\n            cardStock[i] = stockInicial;\n            habilidadesDisponibles.push(i);\n        }\n\n        // AÃ±adir objetos al cardStock\n        for (\n            uint256 i = totalObjetos * 3 + 2;\n            i < (totalObjetos + cantidadObjetos) * 3 + 2;\n            i += 3\n        ) {\n            cardStock[i] = stockInicial;\n            objetosDisponibles.push(i);\n        }\n\n        // Actualiza las variables de estado\n        totalCriaturas += cantidadCriaturas;\n        totalHabilidades += cantidadHabilidades;\n        totalObjetos += cantidadObjetos;\n    }\n\n    function buyBoosterPack(uint8 _cardType) external whenNotPaused {\n        require(_cardType >= 1 && _cardType <= 3, \"Invalid card type\");\n\n        for (uint8 i = 0; i < 5; i++) {\n            uint256[] memory randomCardIds = _getRandomCardId(_cardType, 5);\n            mint(msg.sender, randomCardIds[i]);\n        }\n\n        paymentToken.transferFrom(msg.sender, address(this), BOOSTER_PACK_COST);\n    }\n\n    // Permite cambiar el token de pago en caso de emergencia\n    function updatePaymentToken(address _paymentToken) external onlyOwner {\n        paymentToken = IERC20(_paymentToken);\n    }\n\n    function burn(uint256 tokenId) external {\n        require(\n            ownerOf(tokenId) == msg.sender,\n            \"Only the owner can burn this token\"\n        );\n        // Verifique que el contrato tiene suficiente saldo para pagar la recompensa\n        require(\n            paymentToken.balanceOf(address(this)) >= BURN_REWARD,\n            \"Contract has insufficient balance to pay reward\"\n        );\n\n        uint256 currentTime = block.timestamp;\n        uint256 userLastBurnTime = _lastBurnTime[msg.sender];\n\n        if (currentTime - userLastBurnTime > burnTimeFrame) {\n            // Reinicia el conteo de cartas quemadas si ha pasado el perÃ­odo de tiempo\n            _burnedCards[msg.sender] = 0;\n            _lastBurnTime[msg.sender] = currentTime;\n        }\n\n        require(\n            _burnedCards[msg.sender] < burnLimit,\n            \"Burn limit reached for this time frame\"\n        );\n\n        _burn(tokenId);\n\n        _burnedCards[msg.sender] += 1;\n\n        uint256 rewardAmount = BURN_REWARD;\n        paymentToken.transfer(msg.sender, rewardAmount);\n    }\n\n    function _getRandomCardId(\n        uint8 _cardType,\n        uint256 _numCards\n    ) private view returns (uint256[] memory) {\n        uint256[] memory cardIds = new uint256[](_numCards);\n        for (uint256 i = 0; i < _numCards; i++) {\n            if (_cardType == 1) {\n                uint256 randomIndex = _getRandomNumber(\n                    criaturasDisponibles.length\n                );\n                cardIds[i] = criaturasDisponibles[randomIndex];\n            } else if (_cardType == 2) {\n                uint256 randomIndex = _getRandomNumber(\n                    habilidadesDisponibles.length\n                );\n                cardIds[i] = habilidadesDisponibles[randomIndex];\n            } else {\n                uint256 randomIndex = _getRandomNumber(\n                    objetosDisponibles.length\n                );\n                cardIds[i] = objetosDisponibles[randomIndex];\n            }\n        }\n        return cardIds;\n    }\n\n    function remainingCards(uint256 _cardId) external view returns (uint256) {\n        return cardStock[_cardId];\n    }\n\n    // FunciÃ³n para retirar tokens del contrato (usada por el propietario del contrato)\n    function withdraw() external onlyOwner {\n        uint256 balance = paymentToken.balanceOf(address(this));\n        paymentToken.transfer(msg.sender, balance);\n    }\n\n    // FunciÃ³n pÃºblica para agregar nuevos sets de cartas, restringida al propietario del contrato\n    function addCardsSet(\n        uint256 cantidadCriaturas,\n        uint256 cantidadHabilidades,\n        uint256 cantidadObjetos,\n        uint256 stockInicial\n    ) external onlyOwner {\n        _agregarSetCartas(\n            cantidadCriaturas,\n            cantidadHabilidades,\n            cantidadObjetos,\n            stockInicial\n        );\n    }\n\n    function pauseContract() external onlyOwner {\n        _pause();\n    }\n\n    function unpauseContract() external onlyOwner {\n        _unpause();\n    }\n\n    function setCardURI(\n        uint256 cardId,\n        uint8 rarity,\n        string calldata uri\n    ) external onlyOwner {\n        _cardURIs[cardId][rarity] = uri;\n    }\n\n    function tokenURI(\n        uint256 tokenId\n    ) public view virtual override returns (string memory) {\n        require(\n            _exists(tokenId),\n            \"ERC721Metadata: URI query for nonexistent token\"\n        );\n\n        Card memory card = cards[tokenId];\n        string memory uri = _cardURIs[card.cardId][card.rarity];\n        require(bytes(uri).length > 0, \"ERC721Metadata: URI not set for token\");\n\n        return uri;\n    }\n}\n",
  "sourcePath": "contracts/CryptoBeastsNFT.sol",
  "type": "contract"
}